{
  "_format": "hh-sol-artifact-1",
  "contractName": "Flip",
  "sourceName": "contracts/Flip.sol",
  "abi": [
    {
      "inputs": [
        {
          "internalType": "contract IGatewayRegistry",
          "name": "_registry",
          "type": "address"
        }
      ],
      "stateMutability": "nonpayable",
      "type": "constructor"
    },
    {
      "anonymous": false,
      "inputs": [
        {
          "indexed": false,
          "internalType": "uint256",
          "name": "_amount",
          "type": "uint256"
        }
      ],
      "name": "Deposit",
      "type": "event"
    },
    {
      "anonymous": false,
      "inputs": [
        {
          "indexed": false,
          "internalType": "bool",
          "name": "result",
          "type": "bool"
        }
      ],
      "name": "Result",
      "type": "event"
    },
    {
      "anonymous": false,
      "inputs": [
        {
          "indexed": false,
          "internalType": "uint256",
          "name": "burnedAmount",
          "type": "uint256"
        }
      ],
      "name": "Withdrawal",
      "type": "event"
    },
    {
      "inputs": [
        {
          "internalType": "uint256",
          "name": "_id",
          "type": "uint256"
        }
      ],
      "name": "acceptGame",
      "outputs": [],
      "stateMutability": "payable",
      "type": "function"
    },
    {
      "inputs": [
        {
          "internalType": "string",
          "name": "_symbol",
          "type": "string"
        },
        {
          "internalType": "uint256",
          "name": "_amount",
          "type": "uint256"
        },
        {
          "internalType": "bytes32",
          "name": "_nHash",
          "type": "bytes32"
        },
        {
          "internalType": "bytes",
          "name": "_sig",
          "type": "bytes"
        }
      ],
      "name": "deposit",
      "outputs": [],
      "stateMutability": "nonpayable",
      "type": "function"
    },
    {
      "inputs": [
        {
          "internalType": "address",
          "name": "_address",
          "type": "address"
        },
        {
          "internalType": "uint256",
          "name": "_amount",
          "type": "uint256"
        },
        {
          "internalType": "bytes32",
          "name": "_nHash",
          "type": "bytes32"
        },
        {
          "internalType": "bytes",
          "name": "_sig",
          "type": "bytes"
        }
      ],
      "name": "depositBTC",
      "outputs": [],
      "stateMutability": "nonpayable",
      "type": "function"
    },
    {
      "inputs": [
        {
          "internalType": "bytes",
          "name": "_msg",
          "type": "bytes"
        },
        {
          "internalType": "uint256",
          "name": "_amount",
          "type": "uint256"
        },
        {
          "internalType": "bytes32",
          "name": "_nHash",
          "type": "bytes32"
        },
        {
          "internalType": "bytes",
          "name": "_sig",
          "type": "bytes"
        }
      ],
      "name": "depositLUNA",
      "outputs": [],
      "stateMutability": "nonpayable",
      "type": "function"
    },
    {
      "inputs": [
        {
          "internalType": "address",
          "name": "_address",
          "type": "address"
        }
      ],
      "name": "getBalance",
      "outputs": [
        {
          "components": [
            {
              "internalType": "uint256",
              "name": "btc",
              "type": "uint256"
            },
            {
              "internalType": "uint256",
              "name": "luna",
              "type": "uint256"
            }
          ],
          "internalType": "struct Flip.Balance",
          "name": "",
          "type": "tuple"
        }
      ],
      "stateMutability": "view",
      "type": "function"
    },
    {
      "inputs": [],
      "name": "getGames",
      "outputs": [
        {
          "components": [
            {
              "internalType": "address",
              "name": "initiator",
              "type": "address"
            },
            {
              "internalType": "uint256",
              "name": "amount",
              "type": "uint256"
            },
            {
              "internalType": "string",
              "name": "symbol",
              "type": "string"
            }
          ],
          "internalType": "struct Flip.Game[]",
          "name": "",
          "type": "tuple[]"
        }
      ],
      "stateMutability": "view",
      "type": "function"
    },
    {
      "inputs": [],
      "name": "getTotalBalance",
      "outputs": [
        {
          "components": [
            {
              "internalType": "uint256",
              "name": "btc",
              "type": "uint256"
            },
            {
              "internalType": "uint256",
              "name": "luna",
              "type": "uint256"
            }
          ],
          "internalType": "struct Flip.Balance",
          "name": "",
          "type": "tuple"
        }
      ],
      "stateMutability": "view",
      "type": "function"
    },
    {
      "inputs": [
        {
          "internalType": "string",
          "name": "_symbol",
          "type": "string"
        },
        {
          "internalType": "uint256",
          "name": "_amount",
          "type": "uint256"
        }
      ],
      "name": "openGame",
      "outputs": [],
      "stateMutability": "payable",
      "type": "function"
    },
    {
      "inputs": [],
      "name": "registry",
      "outputs": [
        {
          "internalType": "contract IGatewayRegistry",
          "name": "",
          "type": "address"
        }
      ],
      "stateMutability": "view",
      "type": "function"
    },
    {
      "inputs": [
        {
          "internalType": "string",
          "name": "_symbol",
          "type": "string"
        },
        {
          "internalType": "address",
          "name": "_address",
          "type": "address"
        },
        {
          "internalType": "bytes",
          "name": "_to",
          "type": "bytes"
        },
        {
          "internalType": "uint256",
          "name": "_amount",
          "type": "uint256"
        }
      ],
      "name": "withdraw",
      "outputs": [],
      "stateMutability": "nonpayable",
      "type": "function"
    }
  ],
  "bytecode": "0x60806040523480156200001157600080fd5b5060405162003dc238038062003dc2833981810160405281019062000037919062000095565b806000806101000a81548173ffffffffffffffffffffffffffffffffffffffff021916908373ffffffffffffffffffffffffffffffffffffffff1602179055505062000123565b6000815190506200008f8162000109565b92915050565b600060208284031215620000a857600080fd5b6000620000b8848285016200007e565b91505092915050565b6000620000ce82620000e9565b9050919050565b6000620000e282620000c1565b9050919050565b600073ffffffffffffffffffffffffffffffffffffffff82169050919050565b6200011481620000d5565b81146200012057600080fd5b50565b613c8f80620001336000396000f3fe6080604052600436106100915760003560e01c80637b103999116100595780637b103999146101585780638fead26f14610183578063c04c5947146101ac578063cc7c8c2b146101d7578063f8b2cb4f146101f357610091565b806312b583491461009657806327291877146100c15780632f2b3c5f146100ea5780632ff48e6914610113578063605bd5ff1461013c575b600080fd5b3480156100a257600080fd5b506100ab610230565b6040516100b891906136fe565b60405180910390f35b3480156100cd57600080fd5b506100e860048036038101906100e39190612f83565b61025e565b005b3480156100f657600080fd5b50610111600480360381019061010c9190612ebf565b6106e2565b005b34801561011f57600080fd5b5061013a60048036038101906101359190613076565b610903565b005b6101566004803603810190610151919061310e565b610cac565b005b34801561016457600080fd5b5061016d61214d565b60405161017a919061361f565b60405180910390f35b34801561018f57600080fd5b506101aa60048036038101906101a59190612e3f565b612171565b005b3480156101b857600080fd5b506101c161238f565b6040516101ce91906134f2565b60405180910390f35b6101f160048036038101906101ec919061301e565b6124e0565b005b3480156101ff57600080fd5b5061021a60048036038101906102159190612e16565b612a61565b60405161022791906136fe565b60405180910390f35b610238612b27565b600260405180604001604052908160008201548152602001600182015481525050905090565b6102e186868080601f016020809104026020016040519081016040528093929190818152602001838380828437600081840152601f19601f820116905080830192505050505050506040518060400160405280600381526020017f4254430000000000000000000000000000000000000000000000000000000000815250612ace565b156103e15780600460008673ffffffffffffffffffffffffffffffffffffffff1673ffffffffffffffffffffffffffffffffffffffff16815260200190815260200160002060000154101561036b576040517f08c379a00000000000000000000000000000000000000000000000000000000081526004016103629061367e565b60405180910390fd5b80600460008673ffffffffffffffffffffffffffffffffffffffff1673ffffffffffffffffffffffffffffffffffffffff16815260200190815260200160002060000160008282546103bd91906138c7565b9250508190555080600260000160008282546103d991906138c7565b925050819055505b61046486868080601f016020809104026020016040519081016040528093929190818152602001838380828437600081840152601f19601f820116905080830192505050505050506040518060400160405280600481526020017f4c554e4100000000000000000000000000000000000000000000000000000000815250612ace565b156105645780600460008673ffffffffffffffffffffffffffffffffffffffff1673ffffffffffffffffffffffffffffffffffffffff1681526020019081526020016000206001015410156104ee576040517f08c379a00000000000000000000000000000000000000000000000000000000081526004016104e59061367e565b60405180910390fd5b80600460008673ffffffffffffffffffffffffffffffffffffffff1673ffffffffffffffffffffffffffffffffffffffff168152602001908152602001600020600101600082825461054091906138c7565b92505081905550806002600101600082825461055c91906138c7565b925050819055505b60008060009054906101000a900473ffffffffffffffffffffffffffffffffffffffff1673ffffffffffffffffffffffffffffffffffffffff166364936b1e88886040518363ffffffff1660e01b81526004016105c292919061363a565b60206040518083038186803b1580156105da57600080fd5b505afa1580156105ee573d6000803e3d6000fd5b505050506040513d601f19601f820116820180604052508101906106129190612f5a565b73ffffffffffffffffffffffffffffffffffffffff166338463cff8585856040518463ffffffff1660e01b815260040161064e939291906135ed565b602060405180830381600087803b15801561066857600080fd5b505af115801561067c573d6000803e3d6000fd5b505050506040513d601f19601f820116820180604052508101906106a09190613137565b90507f4e70a604b23a8edee2b1d0a656e9b9c00b73ad8bb1afc2c59381ee9f69197de7816040516106d19190613719565b60405180910390a150505050505050565b600086866040516020016106f79291906135c9565b60405160208183030381529060405280519060200120905060008060009054906101000a900473ffffffffffffffffffffffffffffffffffffffff1673ffffffffffffffffffffffffffffffffffffffff166364936b1e6040518163ffffffff1660e01b81526004016107699061365e565b60206040518083038186803b15801561078157600080fd5b505afa158015610795573d6000803e3d6000fd5b505050506040513d601f19601f820116820180604052508101906107b99190612f5a565b73ffffffffffffffffffffffffffffffffffffffff1663159ab14d83888888886040518663ffffffff1660e01b81526004016107f995949392919061352f565b602060405180830381600087803b15801561081357600080fd5b505af1158015610827573d6000803e3d6000fd5b505050506040513d601f19601f8201168201806040525081019061084b9190613137565b905080600460003373ffffffffffffffffffffffffffffffffffffffff1673ffffffffffffffffffffffffffffffffffffffff168152602001908152602001600020600101600082825461089f9190613817565b9250508190555080600260010160008282546108bb9190613817565b925050819055507f4d6ce1e535dbade1c23defba91e23b8f791ce5edc0cc320257a2b364e4e38426816040516108f19190613719565b60405180910390a15050505050505050565b6000858560405160200161091892919061363a565b60405160208183030381529060405280519060200120905060008060009054906101000a900473ffffffffffffffffffffffffffffffffffffffff1673ffffffffffffffffffffffffffffffffffffffff166364936b1e88886040518363ffffffff1660e01b815260040161098e92919061363a565b60206040518083038186803b1580156109a657600080fd5b505afa1580156109ba573d6000803e3d6000fd5b505050506040513d601f19601f820116820180604052508101906109de9190612f5a565b73ffffffffffffffffffffffffffffffffffffffff1663159ab14d838787876040518563ffffffff1660e01b8152600401610a1c949392919061357d565b602060405180830381600087803b158015610a3657600080fd5b505af1158015610a4a573d6000803e3d6000fd5b505050506040513d601f19601f82011682018060405250810190610a6e9190613137565b9050610af387878080601f016020809104026020016040519081016040528093929190818152602001838380828437600081840152601f19601f820116905080830192505050505050506040518060400160405280600381526020017f4254430000000000000000000000000000000000000000000000000000000000815250612ace565b15610b6e5780600460003373ffffffffffffffffffffffffffffffffffffffff1673ffffffffffffffffffffffffffffffffffffffff1681526020019081526020016000206000016000828254610b4a9190613817565b925050819055508060026000016000828254610b669190613817565b925050819055505b610bf187878080601f016020809104026020016040519081016040528093929190818152602001838380828437600081840152601f19601f820116905080830192505050505050506040518060400160405280600481526020017f4c554e4100000000000000000000000000000000000000000000000000000000815250612ace565b15610c6c5780600460003373ffffffffffffffffffffffffffffffffffffffff1673ffffffffffffffffffffffffffffffffffffffff1681526020019081526020016000206001016000828254610c489190613817565b925050819055508060026001016000828254610c649190613817565b925050819055505b7f4d6ce1e535dbade1c23defba91e23b8f791ce5edc0cc320257a2b364e4e3842681604051610c9b9190613719565b60405180910390a150505050505050565b60008060024442604051602001610cc49291906134ab565b6040516020818303038152906040528051906020012060001c610ce79190613a32565b149050610dfc60018381548110610d27577f4e487b7100000000000000000000000000000000000000000000000000000000600052603260045260246000fd5b90600052602060002090600302016002018054610d43906139c5565b80601f0160208091040260200160405190810160405280929190818152602001828054610d6f906139c5565b8015610dbc5780601f10610d9157610100808354040283529160200191610dbc565b820191906000526020600020905b815481529060010190602001808311610d9f57829003601f168201915b50505050506040518060400160405280600381526020017f4554480000000000000000000000000000000000000000000000000000000000815250612ace565b156110465760018281548110610e3b577f4e487b7100000000000000000000000000000000000000000000000000000000600052603260045260246000fd5b9060005260206000209060030201600101543414610e8e576040517f08c379a0000000000000000000000000000000000000000000000000000000008152600401610e859061369e565b60405180910390fd5b8015610f37573373ffffffffffffffffffffffffffffffffffffffff166108fc600260018581548110610eea577f4e487b7100000000000000000000000000000000000000000000000000000000600052603260045260246000fd5b906000526020600020906003020160010154610f06919061386d565b9081150290604051600060405180830381858888f19350505050158015610f31573d6000803e3d6000fd5b50611041565b60018281548110610f71577f4e487b7100000000000000000000000000000000000000000000000000000000600052603260045260246000fd5b906000526020600020906003020160000160009054906101000a900473ffffffffffffffffffffffffffffffffffffffff1673ffffffffffffffffffffffffffffffffffffffff166108fc600260018581548110610ff8577f4e487b7100000000000000000000000000000000000000000000000000000000600052603260045260246000fd5b906000526020600020906003020160010154611014919061386d565b9081150290604051600060405180830381858888f1935050505015801561103f573d6000803e3d6000fd5b505b611f4f565b61115860018381548110611083577f4e487b7100000000000000000000000000000000000000000000000000000000600052603260045260246000fd5b9060005260206000209060030201600201805461109f906139c5565b80601f01602080910402602001604051908101604052809291908181526020018280546110cb906139c5565b80156111185780601f106110ed57610100808354040283529160200191611118565b820191906000526020600020905b8154815290600101906020018083116110fb57829003601f168201915b50505050506040518060400160405280600381526020017f4254430000000000000000000000000000000000000000000000000000000000815250612ace565b1561122e57600460003373ffffffffffffffffffffffffffffffffffffffff1673ffffffffffffffffffffffffffffffffffffffff16815260200190815260200160002060000154600183815481106111da577f4e487b7100000000000000000000000000000000000000000000000000000000600052603260045260246000fd5b906000526020600020906003020160010154111561122d576040517f08c379a0000000000000000000000000000000000000000000000000000000008152600401611224906136be565b60405180910390fd5b5b6113406001838154811061126b577f4e487b7100000000000000000000000000000000000000000000000000000000600052603260045260246000fd5b90600052602060002090600302016002018054611287906139c5565b80601f01602080910402602001604051908101604052809291908181526020018280546112b3906139c5565b80156113005780601f106112d557610100808354040283529160200191611300565b820191906000526020600020905b8154815290600101906020018083116112e357829003601f168201915b50505050506040518060400160405280600481526020017f4c554e4100000000000000000000000000000000000000000000000000000000815250612ace565b1561141657600460003373ffffffffffffffffffffffffffffffffffffffff1673ffffffffffffffffffffffffffffffffffffffff16815260200190815260200160002060010154600183815481106113c2577f4e487b7100000000000000000000000000000000000000000000000000000000600052603260045260246000fd5b9060005260206000209060030201600101541115611415576040517f08c379a000000000000000000000000000000000000000000000000000000000815260040161140c906136be565b60405180910390fd5b5b80156119b75761152e60018381548110611459577f4e487b7100000000000000000000000000000000000000000000000000000000600052603260045260246000fd5b90600052602060002090600302016002018054611475906139c5565b80601f01602080910402602001604051908101604052809291908181526020018280546114a1906139c5565b80156114ee5780601f106114c3576101008083540402835291602001916114ee565b820191906000526020600020905b8154815290600101906020018083116114d157829003601f168201915b50505050506040518060400160405280600381526020017f4254430000000000000000000000000000000000000000000000000000000000815250612ace565b156116e7576001828154811061156d577f4e487b7100000000000000000000000000000000000000000000000000000000600052603260045260246000fd5b906000526020600020906003020160010154600460003373ffffffffffffffffffffffffffffffffffffffff1673ffffffffffffffffffffffffffffffffffffffff16815260200190815260200160002060000160008282546115d09190613817565b9250508190555060018281548110611611577f4e487b7100000000000000000000000000000000000000000000000000000000600052603260045260246000fd5b9060005260206000209060030201600101546004600060018581548110611661577f4e487b7100000000000000000000000000000000000000000000000000000000600052603260045260246000fd5b906000526020600020906003020160000160009054906101000a900473ffffffffffffffffffffffffffffffffffffffff1673ffffffffffffffffffffffffffffffffffffffff1673ffffffffffffffffffffffffffffffffffffffff16815260200190815260200160002060000160008282546116df91906138c7565b925050819055505b6117f960018381548110611724577f4e487b7100000000000000000000000000000000000000000000000000000000600052603260045260246000fd5b90600052602060002090600302016002018054611740906139c5565b80601f016020809104026020016040519081016040528092919081815260200182805461176c906139c5565b80156117b95780601f1061178e576101008083540402835291602001916117b9565b820191906000526020600020905b81548152906001019060200180831161179c57829003601f168201915b50505050506040518060400160405280600481526020017f4c554e4100000000000000000000000000000000000000000000000000000000815250612ace565b156119b25760018281548110611838577f4e487b7100000000000000000000000000000000000000000000000000000000600052603260045260246000fd5b906000526020600020906003020160010154600460003373ffffffffffffffffffffffffffffffffffffffff1673ffffffffffffffffffffffffffffffffffffffff168152602001908152602001600020600101600082825461189b9190613817565b92505081905550600182815481106118dc577f4e487b7100000000000000000000000000000000000000000000000000000000600052603260045260246000fd5b906000526020600020906003020160010154600460006001858154811061192c577f4e487b7100000000000000000000000000000000000000000000000000000000600052603260045260246000fd5b906000526020600020906003020160000160009054906101000a900473ffffffffffffffffffffffffffffffffffffffff1673ffffffffffffffffffffffffffffffffffffffff1673ffffffffffffffffffffffffffffffffffffffff16815260200190815260200160002060010160008282546119aa91906138c7565b925050819055505b611f4e565b611ac9600183815481106119f4577f4e487b7100000000000000000000000000000000000000000000000000000000600052603260045260246000fd5b90600052602060002090600302016002018054611a10906139c5565b80601f0160208091040260200160405190810160405280929190818152602001828054611a3c906139c5565b8015611a895780601f10611a5e57610100808354040283529160200191611a89565b820191906000526020600020905b815481529060010190602001808311611a6c57829003601f168201915b50505050506040518060400160405280600381526020017f4254430000000000000000000000000000000000000000000000000000000000815250612ace565b15611c825760018281548110611b08577f4e487b7100000000000000000000000000000000000000000000000000000000600052603260045260246000fd5b906000526020600020906003020160010154600460003373ffffffffffffffffffffffffffffffffffffffff1673ffffffffffffffffffffffffffffffffffffffff1681526020019081526020016000206000016000828254611b6b91906138c7565b9250508190555060018281548110611bac577f4e487b7100000000000000000000000000000000000000000000000000000000600052603260045260246000fd5b9060005260206000209060030201600101546004600060018581548110611bfc577f4e487b7100000000000000000000000000000000000000000000000000000000600052603260045260246000fd5b906000526020600020906003020160000160009054906101000a900473ffffffffffffffffffffffffffffffffffffffff1673ffffffffffffffffffffffffffffffffffffffff1673ffffffffffffffffffffffffffffffffffffffff1681526020019081526020016000206000016000828254611c7a9190613817565b925050819055505b611d9460018381548110611cbf577f4e487b7100000000000000000000000000000000000000000000000000000000600052603260045260246000fd5b90600052602060002090600302016002018054611cdb906139c5565b80601f0160208091040260200160405190810160405280929190818152602001828054611d07906139c5565b8015611d545780601f10611d2957610100808354040283529160200191611d54565b820191906000526020600020905b815481529060010190602001808311611d3757829003601f168201915b50505050506040518060400160405280600481526020017f4c554e4100000000000000000000000000000000000000000000000000000000815250612ace565b15611f4d5760018281548110611dd3577f4e487b7100000000000000000000000000000000000000000000000000000000600052603260045260246000fd5b906000526020600020906003020160010154600460003373ffffffffffffffffffffffffffffffffffffffff1673ffffffffffffffffffffffffffffffffffffffff1681526020019081526020016000206001016000828254611e3691906138c7565b9250508190555060018281548110611e77577f4e487b7100000000000000000000000000000000000000000000000000000000600052603260045260246000fd5b9060005260206000209060030201600101546004600060018581548110611ec7577f4e487b7100000000000000000000000000000000000000000000000000000000600052603260045260246000fd5b906000526020600020906003020160000160009054906101000a900473ffffffffffffffffffffffffffffffffffffffff1673ffffffffffffffffffffffffffffffffffffffff1673ffffffffffffffffffffffffffffffffffffffff1681526020019081526020016000206001016000828254611f459190613817565b925050819055505b5b5b7f0b3bdb70bcb1393d4319be3261bd6ab95e2ea1665e718029d24cecca39e84ccc81604051611f7e9190613514565b60405180910390a16001808080549050611f9891906138c7565b81548110611fcf577f4e487b7100000000000000000000000000000000000000000000000000000000600052603260045260246000fd5b906000526020600020906003020160018381548110612017577f4e487b7100000000000000000000000000000000000000000000000000000000600052603260045260246000fd5b90600052602060002090600302016000820160009054906101000a900473ffffffffffffffffffffffffffffffffffffffff168160000160006101000a81548173ffffffffffffffffffffffffffffffffffffffff021916908373ffffffffffffffffffffffffffffffffffffffff1602179055506001820154816001015560028201816002019080546120aa906139c5565b6120b5929190612b41565b5090505060018054806120f1577f4e487b7100000000000000000000000000000000000000000000000000000000600052603160045260246000fd5b6001900381819060005260206000209060030201600080820160006101000a81549073ffffffffffffffffffffffffffffffffffffffff021916905560018201600090556002820160006121459190612bce565b505090555050565b60008054906101000a900473ffffffffffffffffffffffffffffffffffffffff1681565b60008560405160200161218491906134d7565b60405160208183030381529060405280519060200120905060008060009054906101000a900473ffffffffffffffffffffffffffffffffffffffff1673ffffffffffffffffffffffffffffffffffffffff166364936b1e6040518163ffffffff1660e01b81526004016121f6906136de565b60206040518083038186803b15801561220e57600080fd5b505afa158015612222573d6000803e3d6000fd5b505050506040513d601f19601f820116820180604052508101906122469190612f5a565b73ffffffffffffffffffffffffffffffffffffffff1663159ab14d83888888886040518663ffffffff1660e01b815260040161228695949392919061352f565b602060405180830381600087803b1580156122a057600080fd5b505af11580156122b4573d6000803e3d6000fd5b505050506040513d601f19601f820116820180604052508101906122d89190613137565b905080600460008973ffffffffffffffffffffffffffffffffffffffff1673ffffffffffffffffffffffffffffffffffffffff168152602001908152602001600020600001600082825461232c9190613817565b9250508190555080600260000160008282546123489190613817565b925050819055507f4d6ce1e535dbade1c23defba91e23b8f791ce5edc0cc320257a2b364e4e384268660405161237e9190613719565b60405180910390a150505050505050565b60606001805480602002602001604051908101604052809291908181526020016000905b828210156124d757838290600052602060002090600302016040518060600160405290816000820160009054906101000a900473ffffffffffffffffffffffffffffffffffffffff1673ffffffffffffffffffffffffffffffffffffffff1673ffffffffffffffffffffffffffffffffffffffff16815260200160018201548152602001600282018054612446906139c5565b80601f0160208091040260200160405190810160405280929190818152602001828054612472906139c5565b80156124bf5780601f10612494576101008083540402835291602001916124bf565b820191906000526020600020905b8154815290600101906020018083116124a257829003601f168201915b505050505081525050815260200190600101906123b3565b50505050905090565b61256383838080601f016020809104026020016040519081016040528093929190818152602001838380828437600081840152601f19601f820116905080830192505050505050506040518060400160405280600381526020017f4554480000000000000000000000000000000000000000000000000000000000815250612ace565b1561267d57600160405180606001604052803373ffffffffffffffffffffffffffffffffffffffff16815260200134815260200185858080601f016020809104026020016040519081016040528093929190818152602001838380828437600081840152601f19601f82011690508083019250505050505050815250908060018154018082558091505060019003906000526020600020906003020160009091909190915060008201518160000160006101000a81548173ffffffffffffffffffffffffffffffffffffffff021916908373ffffffffffffffffffffffffffffffffffffffff160217905550602082015181600101556040820151816002019080519060200190612675929190612c0e565b505050612a5c565b61270083838080601f016020809104026020016040519081016040528093929190818152602001838380828437600081840152601f19601f820116905080830192505050505050506040518060400160405280600381526020017f4254430000000000000000000000000000000000000000000000000000000000815250612ace565b156127e457600460003373ffffffffffffffffffffffffffffffffffffffff1673ffffffffffffffffffffffffffffffffffffffff1681526020019081526020016000206000015481111561278a576040517f08c379a0000000000000000000000000000000000000000000000000000000008152600401612781906136be565b60405180910390fd5b80600460003373ffffffffffffffffffffffffffffffffffffffff1673ffffffffffffffffffffffffffffffffffffffff16815260200190815260200160002060000160008282546127dc91906138c7565b925050819055505b61286783838080601f016020809104026020016040519081016040528093929190818152602001838380828437600081840152601f19601f820116905080830192505050505050506040518060400160405280600481526020017f4c554e4100000000000000000000000000000000000000000000000000000000815250612ace565b1561294b57600460003373ffffffffffffffffffffffffffffffffffffffff1673ffffffffffffffffffffffffffffffffffffffff168152602001908152602001600020600101548111156128f1576040517f08c379a00000000000000000000000000000000000000000000000000000000081526004016128e8906136be565b60405180910390fd5b80600460003373ffffffffffffffffffffffffffffffffffffffff1673ffffffffffffffffffffffffffffffffffffffff168152602001908152602001600020600101600082825461294391906138c7565b925050819055505b600160405180606001604052803373ffffffffffffffffffffffffffffffffffffffff16815260200183815260200185858080601f016020809104026020016040519081016040528093929190818152602001838380828437600081840152601f19601f82011690508083019250505050505050815250908060018154018082558091505060019003906000526020600020906003020160009091909190915060008201518160000160006101000a81548173ffffffffffffffffffffffffffffffffffffffff021916908373ffffffffffffffffffffffffffffffffffffffff160217905550602082015181600101556040820151816002019080519060200190612a58929190612c0e565b5050505b505050565b612a69612b27565b600460008373ffffffffffffffffffffffffffffffffffffffff1673ffffffffffffffffffffffffffffffffffffffff168152602001908152602001600020604051806040016040529081600082015481526020016001820154815250509050919050565b600081604051602001612ae19190613494565b6040516020818303038152906040528051906020012083604051602001612b089190613494565b6040516020818303038152906040528051906020012014905092915050565b604051806040016040528060008152602001600081525090565b828054612b4d906139c5565b90600052602060002090601f016020900481019282612b6f5760008555612bbd565b82601f10612b805780548555612bbd565b82800160010185558215612bbd57600052602060002091601f016020900482015b82811115612bbc578254825591600101919060010190612ba1565b5b509050612bca9190612c94565b5090565b508054612bda906139c5565b6000825580601f10612bec5750612c0b565b601f016020900490600052602060002090810190612c0a9190612c94565b5b50565b828054612c1a906139c5565b90600052602060002090601f016020900481019282612c3c5760008555612c83565b82601f10612c5557805160ff1916838001178555612c83565b82800160010185558215612c83579182015b82811115612c82578251825591602001919060010190612c67565b5b509050612c909190612c94565b5090565b5b80821115612cad576000816000905550600101612c95565b5090565b6000612cc4612cbf84613759565b613734565b905082815260208101848484011115612cdc57600080fd5b612ce7848285613983565b509392505050565b600081359050612cfe81613bfd565b92915050565b600081359050612d1381613c14565b92915050565b60008083601f840112612d2b57600080fd5b8235905067ffffffffffffffff811115612d4457600080fd5b602083019150836001820283011115612d5c57600080fd5b9250929050565b600082601f830112612d7457600080fd5b8135612d84848260208601612cb1565b91505092915050565b600081519050612d9c81613c2b565b92915050565b60008083601f840112612db457600080fd5b8235905067ffffffffffffffff811115612dcd57600080fd5b602083019150836001820283011115612de557600080fd5b9250929050565b600081359050612dfb81613c42565b92915050565b600081519050612e1081613c42565b92915050565b600060208284031215612e2857600080fd5b6000612e3684828501612cef565b91505092915050565b600080600080600060808688031215612e5757600080fd5b6000612e6588828901612cef565b9550506020612e7688828901612dec565b9450506040612e8788828901612d04565b935050606086013567ffffffffffffffff811115612ea457600080fd5b612eb088828901612d19565b92509250509295509295909350565b60008060008060008060808789031215612ed857600080fd5b600087013567ffffffffffffffff811115612ef257600080fd5b612efe89828a01612d19565b96509650506020612f1189828a01612dec565b9450506040612f2289828a01612d04565b935050606087013567ffffffffffffffff811115612f3f57600080fd5b612f4b89828a01612d19565b92509250509295509295509295565b600060208284031215612f6c57600080fd5b6000612f7a84828501612d8d565b91505092915050565b60008060008060008060808789031215612f9c57600080fd5b600087013567ffffffffffffffff811115612fb657600080fd5b612fc289828a01612da2565b96509650506020612fd589828a01612cef565b945050604087013567ffffffffffffffff811115612ff257600080fd5b612ffe89828a01612d19565b9350935050606061301189828a01612dec565b9150509295509295509295565b60008060006040848603121561303357600080fd5b600084013567ffffffffffffffff81111561304d57600080fd5b61305986828701612da2565b9350935050602061306c86828701612dec565b9150509250925092565b60008060008060006080868803121561308e57600080fd5b600086013567ffffffffffffffff8111156130a857600080fd5b6130b488828901612da2565b955095505060206130c788828901612dec565b93505060406130d888828901612d04565b925050606086013567ffffffffffffffff8111156130f557600080fd5b61310188828901612d63565b9150509295509295909350565b60006020828403121561312057600080fd5b600061312e84828501612dec565b91505092915050565b60006020828403121561314957600080fd5b600061315784828501612e01565b91505092915050565b600061316c838361340f565b905092915050565b61317d816138fb565b82525050565b61318c816138fb565b82525050565b600061319d8261379a565b6131a781856137c8565b9350836020820285016131b98561378a565b8060005b858110156131f557848403895281516131d68582613160565b94506131e1836137bb565b925060208a019950506001810190506131bd565b50829750879550505050505092915050565b6132108161390d565b82525050565b61321f81613919565b82525050565b600061323183856137d9565b935061323e838584613983565b61324783613b1f565b840190509392505050565b600061325d826137a5565b61326781856137d9565b9350613277818560208601613992565b61328081613b1f565b840191505092915050565b6132948161395f565b82525050565b60006132a683856137fb565b93506132b3838584613983565b6132bc83613b1f565b840190509392505050565b60006132d2826137b0565b6132dc81856137ea565b93506132ec818560208601613992565b6132f581613b1f565b840191505092915050565b600061330b826137b0565b613315818561380c565b9350613325818560208601613992565b80840191505092915050565b600061333e6004836137fb565b915061334982613b30565b602082019050919050565b60006133616014836137fb565b915061336c82613b59565b602082019050919050565b6000613384600c836137fb565b915061338f82613b82565b602082019050919050565b60006133a76014836137fb565b91506133b282613bab565b602082019050919050565b60006133ca6003836137fb565b91506133d582613bd4565b602082019050919050565b6040820160008201516133f6600085018261345f565b506020820151613409602085018261345f565b50505050565b60006060830160008301516134276000860182613174565b50602083015161343a602086018261345f565b506040830151848203604086015261345282826132c7565b9150508091505092915050565b61346881613955565b82525050565b61347781613955565b82525050565b61348e61348982613955565b613a28565b82525050565b60006134a08284613300565b915081905092915050565b60006134b7828561347d565b6020820191506134c7828461347d565b6020820191508190509392505050565b60006020820190506134ec6000830184613183565b92915050565b6000602082019050818103600083015261350c8184613192565b905092915050565b60006020820190506135296000830184613207565b92915050565b60006080820190506135446000830188613216565b613551602083018761346e565b61355e6040830186613216565b8181036060830152613571818486613225565b90509695505050505050565b60006080820190506135926000830187613216565b61359f602083018661346e565b6135ac6040830185613216565b81810360608301526135be8184613252565b905095945050505050565b600060208201905081810360008301526135e4818486613225565b90509392505050565b60006040820190508181036000830152613608818587613225565b9050613617602083018461346e565b949350505050565b6000602082019050613634600083018461328b565b92915050565b6000602082019050818103600083015261365581848661329a565b90509392505050565b6000602082019050818103600083015261367781613331565b9050919050565b6000602082019050818103600083015261369781613354565b9050919050565b600060208201905081810360008301526136b781613377565b9050919050565b600060208201905081810360008301526136d78161339a565b9050919050565b600060208201905081810360008301526136f7816133bd565b9050919050565b600060408201905061371360008301846133e0565b92915050565b600060208201905061372e600083018461346e565b92915050565b600061373e61374f565b905061374a82826139f7565b919050565b6000604051905090565b600067ffffffffffffffff82111561377457613773613af0565b5b61377d82613b1f565b9050602081019050919050565b6000819050602082019050919050565b600081519050919050565b600081519050919050565b600081519050919050565b6000602082019050919050565b600082825260208201905092915050565b600082825260208201905092915050565b600082825260208201905092915050565b600082825260208201905092915050565b600081905092915050565b600061382282613955565b915061382d83613955565b9250827fffffffffffffffffffffffffffffffffffffffffffffffffffffffffffffffff0382111561386257613861613a63565b5b828201905092915050565b600061387882613955565b915061388383613955565b9250817fffffffffffffffffffffffffffffffffffffffffffffffffffffffffffffffff04831182151516156138bc576138bb613a63565b5b828202905092915050565b60006138d282613955565b91506138dd83613955565b9250828210156138f0576138ef613a63565b5b828203905092915050565b600061390682613935565b9050919050565b60008115159050919050565b6000819050919050565b600061392e826138fb565b9050919050565b600073ffffffffffffffffffffffffffffffffffffffff82169050919050565b6000819050919050565b600061396a82613971565b9050919050565b600061397c82613935565b9050919050565b82818337600083830152505050565b60005b838110156139b0578082015181840152602081019050613995565b838111156139bf576000848401525b50505050565b600060028204905060018216806139dd57607f821691505b602082108114156139f1576139f0613ac1565b5b50919050565b613a0082613b1f565b810181811067ffffffffffffffff82111715613a1f57613a1e613af0565b5b80604052505050565b6000819050919050565b6000613a3d82613955565b9150613a4883613955565b925082613a5857613a57613a92565b5b828206905092915050565b7f4e487b7100000000000000000000000000000000000000000000000000000000600052601160045260246000fd5b7f4e487b7100000000000000000000000000000000000000000000000000000000600052601260045260246000fd5b7f4e487b7100000000000000000000000000000000000000000000000000000000600052602260045260246000fd5b7f4e487b7100000000000000000000000000000000000000000000000000000000600052604160045260246000fd5b6000601f19601f8301169050919050565b7f4c554e4100000000000000000000000000000000000000000000000000000000600082015250565b7f4465706f73697420416d6f756e74204572726f72000000000000000000000000600082015250565b7f416d6f756e74204572726f720000000000000000000000000000000000000000600082015250565b7f42616c616e636520496e73756666696369656e74000000000000000000000000600082015250565b7f4254430000000000000000000000000000000000000000000000000000000000600082015250565b613c06816138fb565b8114613c1157600080fd5b50565b613c1d81613919565b8114613c2857600080fd5b50565b613c3481613923565b8114613c3f57600080fd5b50565b613c4b81613955565b8114613c5657600080fd5b5056fea2646970667358221220ed8654c4ea7bca4699247484783602d2f9a56d24a7e400dda5c6405f829a424464736f6c63430008040033",
  "linkReferences": {},
  "deployedLinkReferences": {}
}