{
  "_format": "hh-sol-artifact-1",
  "contractName": "Flip",
  "sourceName": "contracts/Flip.sol",
  "abi": [
    {
      "inputs": [
        {
          "internalType": "contract IGatewayRegistry",
          "name": "_registry",
          "type": "address"
        }
      ],
      "stateMutability": "nonpayable",
      "type": "constructor"
    },
    {
      "anonymous": false,
      "inputs": [
        {
          "indexed": false,
          "internalType": "uint256",
          "name": "_amount",
          "type": "uint256"
        }
      ],
      "name": "Deposit",
      "type": "event"
    },
    {
      "anonymous": false,
      "inputs": [
        {
          "indexed": false,
          "internalType": "bool",
          "name": "result",
          "type": "bool"
        }
      ],
      "name": "Result",
      "type": "event"
    },
    {
      "anonymous": false,
      "inputs": [
        {
          "indexed": false,
          "internalType": "uint256",
          "name": "burnedAmount",
          "type": "uint256"
        }
      ],
      "name": "Withdrawal",
      "type": "event"
    },
    {
      "inputs": [
        {
          "internalType": "uint256",
          "name": "_id",
          "type": "uint256"
        }
      ],
      "name": "acceptGame",
      "outputs": [],
      "stateMutability": "payable",
      "type": "function"
    },
    {
      "inputs": [
        {
          "internalType": "string",
          "name": "_symbol",
          "type": "string"
        },
        {
          "internalType": "uint256",
          "name": "_amount",
          "type": "uint256"
        },
        {
          "internalType": "bytes32",
          "name": "_nHash",
          "type": "bytes32"
        },
        {
          "internalType": "bytes",
          "name": "_sig",
          "type": "bytes"
        }
      ],
      "name": "deposit",
      "outputs": [],
      "stateMutability": "nonpayable",
      "type": "function"
    },
    {
      "inputs": [
        {
          "internalType": "address",
          "name": "_address",
          "type": "address"
        },
        {
          "internalType": "uint256",
          "name": "_amount",
          "type": "uint256"
        },
        {
          "internalType": "bytes32",
          "name": "_nHash",
          "type": "bytes32"
        },
        {
          "internalType": "bytes",
          "name": "_sig",
          "type": "bytes"
        }
      ],
      "name": "depositBTC",
      "outputs": [],
      "stateMutability": "nonpayable",
      "type": "function"
    },
    {
      "inputs": [
        {
          "internalType": "bytes",
          "name": "_msg",
          "type": "bytes"
        },
        {
          "internalType": "uint256",
          "name": "_amount",
          "type": "uint256"
        },
        {
          "internalType": "bytes32",
          "name": "_nHash",
          "type": "bytes32"
        },
        {
          "internalType": "bytes",
          "name": "_sig",
          "type": "bytes"
        }
      ],
      "name": "depositLUNA",
      "outputs": [],
      "stateMutability": "nonpayable",
      "type": "function"
    },
    {
      "inputs": [
        {
          "internalType": "address",
          "name": "_address",
          "type": "address"
        }
      ],
      "name": "getBalance",
      "outputs": [
        {
          "components": [
            {
              "internalType": "uint256",
              "name": "btc",
              "type": "uint256"
            },
            {
              "internalType": "uint256",
              "name": "luna",
              "type": "uint256"
            }
          ],
          "internalType": "struct Flip.Balance",
          "name": "",
          "type": "tuple"
        }
      ],
      "stateMutability": "view",
      "type": "function"
    },
    {
      "inputs": [],
      "name": "getBtcBalance",
      "outputs": [
        {
          "internalType": "uint256",
          "name": "",
          "type": "uint256"
        }
      ],
      "stateMutability": "view",
      "type": "function"
    },
    {
      "inputs": [],
      "name": "getGames",
      "outputs": [
        {
          "components": [
            {
              "internalType": "address",
              "name": "initiator",
              "type": "address"
            },
            {
              "internalType": "uint256",
              "name": "amount",
              "type": "uint256"
            },
            {
              "internalType": "string",
              "name": "symbol",
              "type": "string"
            }
          ],
          "internalType": "struct Flip.Game[]",
          "name": "",
          "type": "tuple[]"
        }
      ],
      "stateMutability": "view",
      "type": "function"
    },
    {
      "inputs": [],
      "name": "getTotalBalance",
      "outputs": [
        {
          "components": [
            {
              "internalType": "uint256",
              "name": "btc",
              "type": "uint256"
            },
            {
              "internalType": "uint256",
              "name": "luna",
              "type": "uint256"
            }
          ],
          "internalType": "struct Flip.Balance",
          "name": "",
          "type": "tuple"
        }
      ],
      "stateMutability": "view",
      "type": "function"
    },
    {
      "inputs": [
        {
          "internalType": "string",
          "name": "_symbol",
          "type": "string"
        },
        {
          "internalType": "uint256",
          "name": "_amount",
          "type": "uint256"
        }
      ],
      "name": "openGame",
      "outputs": [],
      "stateMutability": "payable",
      "type": "function"
    },
    {
      "inputs": [],
      "name": "registry",
      "outputs": [
        {
          "internalType": "contract IGatewayRegistry",
          "name": "",
          "type": "address"
        }
      ],
      "stateMutability": "view",
      "type": "function"
    },
    {
      "inputs": [
        {
          "internalType": "string",
          "name": "_symbol",
          "type": "string"
        },
        {
          "internalType": "address",
          "name": "_address",
          "type": "address"
        },
        {
          "internalType": "bytes",
          "name": "_to",
          "type": "bytes"
        },
        {
          "internalType": "uint256",
          "name": "_amount",
          "type": "uint256"
        }
      ],
      "name": "withdraw",
      "outputs": [],
      "stateMutability": "nonpayable",
      "type": "function"
    }
  ],
  "bytecode": "0x60806040523480156200001157600080fd5b5060405162003f9638038062003f96833981810160405281019062000037919062000095565b806000806101000a81548173ffffffffffffffffffffffffffffffffffffffff021916908373ffffffffffffffffffffffffffffffffffffffff1602179055505062000123565b6000815190506200008f8162000109565b92915050565b600060208284031215620000a857600080fd5b6000620000b8848285016200007e565b91505092915050565b6000620000ce82620000e9565b9050919050565b6000620000e282620000c1565b9050919050565b600073ffffffffffffffffffffffffffffffffffffffff82169050919050565b6200011481620000d5565b81146200012057600080fd5b50565b613e6380620001336000396000f3fe60806040526004361061009c5760003560e01c8063605bd5ff11610064578063605bd5ff146101725780637b1039991461018e5780638fead26f146101b9578063c04c5947146101e2578063cc7c8c2b1461020d578063f8b2cb4f146102295761009c565b806312b58349146100a157806327291877146100cc5780632f2b3c5f146100f55780632ff48e691461011e5780635860909f14610147575b600080fd5b3480156100ad57600080fd5b506100b6610266565b6040516100c391906138a9565b60405180910390f35b3480156100d857600080fd5b506100f360048036038101906100ee919061312e565b610294565b005b34801561010157600080fd5b5061011c60048036038101906101179190613041565b610718565b005b34801561012a57600080fd5b5061014560048036038101906101409190613221565b610939565b005b34801561015357600080fd5b5061015c610ce2565b60405161016991906138c4565b60405180910390f35b61018c600480360381019061018791906132b9565b610e19565b005b34801561019a57600080fd5b506101a36122ba565b6040516101b091906137ca565b60405180910390f35b3480156101c557600080fd5b506101e060048036038101906101db9190612fc1565b6122de565b005b3480156101ee57600080fd5b506101f76124fc565b604051610204919061369d565b60405180910390f35b610227600480360381019061022291906131c9565b61264d565b005b34801561023557600080fd5b50610250600480360381019061024b9190612f98565b612bce565b60405161025d91906138a9565b60405180910390f35b61026e612c94565b600260405180604001604052908160008201548152602001600182015481525050905090565b61031786868080601f016020809104026020016040519081016040528093929190818152602001838380828437600081840152601f19601f820116905080830192505050505050506040518060400160405280600381526020017f4254430000000000000000000000000000000000000000000000000000000000815250612c3b565b156104175780600460008673ffffffffffffffffffffffffffffffffffffffff1673ffffffffffffffffffffffffffffffffffffffff1681526020019081526020016000206000015410156103a1576040517f08c379a000000000000000000000000000000000000000000000000000000000815260040161039890613829565b60405180910390fd5b80600460008673ffffffffffffffffffffffffffffffffffffffff1673ffffffffffffffffffffffffffffffffffffffff16815260200190815260200160002060000160008282546103f39190613a72565b92505081905550806002600001600082825461040f9190613a72565b925050819055505b61049a86868080601f016020809104026020016040519081016040528093929190818152602001838380828437600081840152601f19601f820116905080830192505050505050506040518060400160405280600481526020017f4c554e4100000000000000000000000000000000000000000000000000000000815250612c3b565b1561059a5780600460008673ffffffffffffffffffffffffffffffffffffffff1673ffffffffffffffffffffffffffffffffffffffff168152602001908152602001600020600101541015610524576040517f08c379a000000000000000000000000000000000000000000000000000000000815260040161051b90613829565b60405180910390fd5b80600460008673ffffffffffffffffffffffffffffffffffffffff1673ffffffffffffffffffffffffffffffffffffffff16815260200190815260200160002060010160008282546105769190613a72565b9250508190555080600260010160008282546105929190613a72565b925050819055505b60008060009054906101000a900473ffffffffffffffffffffffffffffffffffffffff1673ffffffffffffffffffffffffffffffffffffffff166364936b1e88886040518363ffffffff1660e01b81526004016105f89291906137e5565b60206040518083038186803b15801561061057600080fd5b505afa158015610624573d6000803e3d6000fd5b505050506040513d601f19601f820116820180604052508101906106489190613105565b73ffffffffffffffffffffffffffffffffffffffff166338463cff8585856040518463ffffffff1660e01b815260040161068493929190613798565b602060405180830381600087803b15801561069e57600080fd5b505af11580156106b2573d6000803e3d6000fd5b505050506040513d601f19601f820116820180604052508101906106d691906132e2565b90507f4e70a604b23a8edee2b1d0a656e9b9c00b73ad8bb1afc2c59381ee9f69197de78160405161070791906138c4565b60405180910390a150505050505050565b6000868660405160200161072d929190613774565b60405160208183030381529060405280519060200120905060008060009054906101000a900473ffffffffffffffffffffffffffffffffffffffff1673ffffffffffffffffffffffffffffffffffffffff166364936b1e6040518163ffffffff1660e01b815260040161079f90613809565b60206040518083038186803b1580156107b757600080fd5b505afa1580156107cb573d6000803e3d6000fd5b505050506040513d601f19601f820116820180604052508101906107ef9190613105565b73ffffffffffffffffffffffffffffffffffffffff1663159ab14d83888888886040518663ffffffff1660e01b815260040161082f9594939291906136da565b602060405180830381600087803b15801561084957600080fd5b505af115801561085d573d6000803e3d6000fd5b505050506040513d601f19601f8201168201806040525081019061088191906132e2565b905080600460003373ffffffffffffffffffffffffffffffffffffffff1673ffffffffffffffffffffffffffffffffffffffff16815260200190815260200160002060010160008282546108d591906139c2565b9250508190555080600260010160008282546108f191906139c2565b925050819055507f4d6ce1e535dbade1c23defba91e23b8f791ce5edc0cc320257a2b364e4e384268160405161092791906138c4565b60405180910390a15050505050505050565b6000858560405160200161094e9291906137e5565b60405160208183030381529060405280519060200120905060008060009054906101000a900473ffffffffffffffffffffffffffffffffffffffff1673ffffffffffffffffffffffffffffffffffffffff166364936b1e88886040518363ffffffff1660e01b81526004016109c49291906137e5565b60206040518083038186803b1580156109dc57600080fd5b505afa1580156109f0573d6000803e3d6000fd5b505050506040513d601f19601f82011682018060405250810190610a149190613105565b73ffffffffffffffffffffffffffffffffffffffff1663159ab14d838787876040518563ffffffff1660e01b8152600401610a529493929190613728565b602060405180830381600087803b158015610a6c57600080fd5b505af1158015610a80573d6000803e3d6000fd5b505050506040513d601f19601f82011682018060405250810190610aa491906132e2565b9050610b2987878080601f016020809104026020016040519081016040528093929190818152602001838380828437600081840152601f19601f820116905080830192505050505050506040518060400160405280600381526020017f4254430000000000000000000000000000000000000000000000000000000000815250612c3b565b15610ba45780600460003373ffffffffffffffffffffffffffffffffffffffff1673ffffffffffffffffffffffffffffffffffffffff1681526020019081526020016000206000016000828254610b8091906139c2565b925050819055508060026000016000828254610b9c91906139c2565b925050819055505b610c2787878080601f016020809104026020016040519081016040528093929190818152602001838380828437600081840152601f19601f820116905080830192505050505050506040518060400160405280600481526020017f4c554e4100000000000000000000000000000000000000000000000000000000815250612c3b565b15610ca25780600460003373ffffffffffffffffffffffffffffffffffffffff1673ffffffffffffffffffffffffffffffffffffffff1681526020019081526020016000206001016000828254610c7e91906139c2565b925050819055508060026001016000828254610c9a91906139c2565b925050819055505b7f4d6ce1e535dbade1c23defba91e23b8f791ce5edc0cc320257a2b364e4e3842681604051610cd191906138c4565b60405180910390a150505050505050565b60008060009054906101000a900473ffffffffffffffffffffffffffffffffffffffff1673ffffffffffffffffffffffffffffffffffffffff1663efa74f1f6040518163ffffffff1660e01b8152600401610d3c90613889565b60206040518083038186803b158015610d5457600080fd5b505afa158015610d68573d6000803e3d6000fd5b505050506040513d601f19601f82011682018060405250810190610d8c91906130dc565b73ffffffffffffffffffffffffffffffffffffffff166370a08231306040518263ffffffff1660e01b8152600401610dc49190613682565b60206040518083038186803b158015610ddc57600080fd5b505afa158015610df0573d6000803e3d6000fd5b505050506040513d601f19601f82011682018060405250810190610e1491906132e2565b905090565b60008060024442604051602001610e31929190613656565b6040516020818303038152906040528051906020012060001c610e549190613bef565b149050610f6960018381548110610e94577f4e487b7100000000000000000000000000000000000000000000000000000000600052603260045260246000fd5b90600052602060002090600302016002018054610eb090613b82565b80601f0160208091040260200160405190810160405280929190818152602001828054610edc90613b82565b8015610f295780601f10610efe57610100808354040283529160200191610f29565b820191906000526020600020905b815481529060010190602001808311610f0c57829003601f168201915b50505050506040518060400160405280600381526020017f4554480000000000000000000000000000000000000000000000000000000000815250612c3b565b156111b35760018281548110610fa8577f4e487b7100000000000000000000000000000000000000000000000000000000600052603260045260246000fd5b9060005260206000209060030201600101543414610ffb576040517f08c379a0000000000000000000000000000000000000000000000000000000008152600401610ff290613849565b60405180910390fd5b80156110a4573373ffffffffffffffffffffffffffffffffffffffff166108fc600260018581548110611057577f4e487b7100000000000000000000000000000000000000000000000000000000600052603260045260246000fd5b9060005260206000209060030201600101546110739190613a18565b9081150290604051600060405180830381858888f1935050505015801561109e573d6000803e3d6000fd5b506111ae565b600182815481106110de577f4e487b7100000000000000000000000000000000000000000000000000000000600052603260045260246000fd5b906000526020600020906003020160000160009054906101000a900473ffffffffffffffffffffffffffffffffffffffff1673ffffffffffffffffffffffffffffffffffffffff166108fc600260018581548110611165577f4e487b7100000000000000000000000000000000000000000000000000000000600052603260045260246000fd5b9060005260206000209060030201600101546111819190613a18565b9081150290604051600060405180830381858888f193505050501580156111ac573d6000803e3d6000fd5b505b6120bc565b6112c5600183815481106111f0577f4e487b7100000000000000000000000000000000000000000000000000000000600052603260045260246000fd5b9060005260206000209060030201600201805461120c90613b82565b80601f016020809104026020016040519081016040528092919081815260200182805461123890613b82565b80156112855780601f1061125a57610100808354040283529160200191611285565b820191906000526020600020905b81548152906001019060200180831161126857829003601f168201915b50505050506040518060400160405280600381526020017f4254430000000000000000000000000000000000000000000000000000000000815250612c3b565b1561139b57600460003373ffffffffffffffffffffffffffffffffffffffff1673ffffffffffffffffffffffffffffffffffffffff1681526020019081526020016000206000015460018381548110611347577f4e487b7100000000000000000000000000000000000000000000000000000000600052603260045260246000fd5b906000526020600020906003020160010154111561139a576040517f08c379a000000000000000000000000000000000000000000000000000000000815260040161139190613869565b60405180910390fd5b5b6114ad600183815481106113d8577f4e487b7100000000000000000000000000000000000000000000000000000000600052603260045260246000fd5b906000526020600020906003020160020180546113f490613b82565b80601f016020809104026020016040519081016040528092919081815260200182805461142090613b82565b801561146d5780601f106114425761010080835404028352916020019161146d565b820191906000526020600020905b81548152906001019060200180831161145057829003601f168201915b50505050506040518060400160405280600481526020017f4c554e4100000000000000000000000000000000000000000000000000000000815250612c3b565b1561158357600460003373ffffffffffffffffffffffffffffffffffffffff1673ffffffffffffffffffffffffffffffffffffffff168152602001908152602001600020600101546001838154811061152f577f4e487b7100000000000000000000000000000000000000000000000000000000600052603260045260246000fd5b9060005260206000209060030201600101541115611582576040517f08c379a000000000000000000000000000000000000000000000000000000000815260040161157990613869565b60405180910390fd5b5b8015611b245761169b600183815481106115c6577f4e487b7100000000000000000000000000000000000000000000000000000000600052603260045260246000fd5b906000526020600020906003020160020180546115e290613b82565b80601f016020809104026020016040519081016040528092919081815260200182805461160e90613b82565b801561165b5780601f106116305761010080835404028352916020019161165b565b820191906000526020600020905b81548152906001019060200180831161163e57829003601f168201915b50505050506040518060400160405280600381526020017f4254430000000000000000000000000000000000000000000000000000000000815250612c3b565b1561185457600182815481106116da577f4e487b7100000000000000000000000000000000000000000000000000000000600052603260045260246000fd5b906000526020600020906003020160010154600460003373ffffffffffffffffffffffffffffffffffffffff1673ffffffffffffffffffffffffffffffffffffffff168152602001908152602001600020600001600082825461173d91906139c2565b925050819055506001828154811061177e577f4e487b7100000000000000000000000000000000000000000000000000000000600052603260045260246000fd5b90600052602060002090600302016001015460046000600185815481106117ce577f4e487b7100000000000000000000000000000000000000000000000000000000600052603260045260246000fd5b906000526020600020906003020160000160009054906101000a900473ffffffffffffffffffffffffffffffffffffffff1673ffffffffffffffffffffffffffffffffffffffff1673ffffffffffffffffffffffffffffffffffffffff168152602001908152602001600020600001600082825461184c9190613a72565b925050819055505b61196660018381548110611891577f4e487b7100000000000000000000000000000000000000000000000000000000600052603260045260246000fd5b906000526020600020906003020160020180546118ad90613b82565b80601f01602080910402602001604051908101604052809291908181526020018280546118d990613b82565b80156119265780601f106118fb57610100808354040283529160200191611926565b820191906000526020600020905b81548152906001019060200180831161190957829003601f168201915b50505050506040518060400160405280600481526020017f4c554e4100000000000000000000000000000000000000000000000000000000815250612c3b565b15611b1f57600182815481106119a5577f4e487b7100000000000000000000000000000000000000000000000000000000600052603260045260246000fd5b906000526020600020906003020160010154600460003373ffffffffffffffffffffffffffffffffffffffff1673ffffffffffffffffffffffffffffffffffffffff1681526020019081526020016000206001016000828254611a0891906139c2565b9250508190555060018281548110611a49577f4e487b7100000000000000000000000000000000000000000000000000000000600052603260045260246000fd5b9060005260206000209060030201600101546004600060018581548110611a99577f4e487b7100000000000000000000000000000000000000000000000000000000600052603260045260246000fd5b906000526020600020906003020160000160009054906101000a900473ffffffffffffffffffffffffffffffffffffffff1673ffffffffffffffffffffffffffffffffffffffff1673ffffffffffffffffffffffffffffffffffffffff1681526020019081526020016000206001016000828254611b179190613a72565b925050819055505b6120bb565b611c3660018381548110611b61577f4e487b7100000000000000000000000000000000000000000000000000000000600052603260045260246000fd5b90600052602060002090600302016002018054611b7d90613b82565b80601f0160208091040260200160405190810160405280929190818152602001828054611ba990613b82565b8015611bf65780601f10611bcb57610100808354040283529160200191611bf6565b820191906000526020600020905b815481529060010190602001808311611bd957829003601f168201915b50505050506040518060400160405280600381526020017f4254430000000000000000000000000000000000000000000000000000000000815250612c3b565b15611def5760018281548110611c75577f4e487b7100000000000000000000000000000000000000000000000000000000600052603260045260246000fd5b906000526020600020906003020160010154600460003373ffffffffffffffffffffffffffffffffffffffff1673ffffffffffffffffffffffffffffffffffffffff1681526020019081526020016000206000016000828254611cd89190613a72565b9250508190555060018281548110611d19577f4e487b7100000000000000000000000000000000000000000000000000000000600052603260045260246000fd5b9060005260206000209060030201600101546004600060018581548110611d69577f4e487b7100000000000000000000000000000000000000000000000000000000600052603260045260246000fd5b906000526020600020906003020160000160009054906101000a900473ffffffffffffffffffffffffffffffffffffffff1673ffffffffffffffffffffffffffffffffffffffff1673ffffffffffffffffffffffffffffffffffffffff1681526020019081526020016000206000016000828254611de791906139c2565b925050819055505b611f0160018381548110611e2c577f4e487b7100000000000000000000000000000000000000000000000000000000600052603260045260246000fd5b90600052602060002090600302016002018054611e4890613b82565b80601f0160208091040260200160405190810160405280929190818152602001828054611e7490613b82565b8015611ec15780601f10611e9657610100808354040283529160200191611ec1565b820191906000526020600020905b815481529060010190602001808311611ea457829003601f168201915b50505050506040518060400160405280600481526020017f4c554e4100000000000000000000000000000000000000000000000000000000815250612c3b565b156120ba5760018281548110611f40577f4e487b7100000000000000000000000000000000000000000000000000000000600052603260045260246000fd5b906000526020600020906003020160010154600460003373ffffffffffffffffffffffffffffffffffffffff1673ffffffffffffffffffffffffffffffffffffffff1681526020019081526020016000206001016000828254611fa39190613a72565b9250508190555060018281548110611fe4577f4e487b7100000000000000000000000000000000000000000000000000000000600052603260045260246000fd5b9060005260206000209060030201600101546004600060018581548110612034577f4e487b7100000000000000000000000000000000000000000000000000000000600052603260045260246000fd5b906000526020600020906003020160000160009054906101000a900473ffffffffffffffffffffffffffffffffffffffff1673ffffffffffffffffffffffffffffffffffffffff1673ffffffffffffffffffffffffffffffffffffffff16815260200190815260200160002060010160008282546120b291906139c2565b925050819055505b5b5b7f0b3bdb70bcb1393d4319be3261bd6ab95e2ea1665e718029d24cecca39e84ccc816040516120eb91906136bf565b60405180910390a160018080805490506121059190613a72565b8154811061213c577f4e487b7100000000000000000000000000000000000000000000000000000000600052603260045260246000fd5b906000526020600020906003020160018381548110612184577f4e487b7100000000000000000000000000000000000000000000000000000000600052603260045260246000fd5b90600052602060002090600302016000820160009054906101000a900473ffffffffffffffffffffffffffffffffffffffff168160000160006101000a81548173ffffffffffffffffffffffffffffffffffffffff021916908373ffffffffffffffffffffffffffffffffffffffff16021790555060018201548160010155600282018160020190805461221790613b82565b612222929190612cae565b50905050600180548061225e577f4e487b7100000000000000000000000000000000000000000000000000000000600052603160045260246000fd5b6001900381819060005260206000209060030201600080820160006101000a81549073ffffffffffffffffffffffffffffffffffffffff021916905560018201600090556002820160006122b29190612d3b565b505090555050565b60008054906101000a900473ffffffffffffffffffffffffffffffffffffffff1681565b6000856040516020016122f19190613682565b60405160208183030381529060405280519060200120905060008060009054906101000a900473ffffffffffffffffffffffffffffffffffffffff1673ffffffffffffffffffffffffffffffffffffffff166364936b1e6040518163ffffffff1660e01b815260040161236390613889565b60206040518083038186803b15801561237b57600080fd5b505afa15801561238f573d6000803e3d6000fd5b505050506040513d601f19601f820116820180604052508101906123b39190613105565b73ffffffffffffffffffffffffffffffffffffffff1663159ab14d83888888886040518663ffffffff1660e01b81526004016123f39594939291906136da565b602060405180830381600087803b15801561240d57600080fd5b505af1158015612421573d6000803e3d6000fd5b505050506040513d601f19601f8201168201806040525081019061244591906132e2565b905080600460008973ffffffffffffffffffffffffffffffffffffffff1673ffffffffffffffffffffffffffffffffffffffff168152602001908152602001600020600001600082825461249991906139c2565b9250508190555080600260000160008282546124b591906139c2565b925050819055507f4d6ce1e535dbade1c23defba91e23b8f791ce5edc0cc320257a2b364e4e38426866040516124eb91906138c4565b60405180910390a150505050505050565b60606001805480602002602001604051908101604052809291908181526020016000905b8282101561264457838290600052602060002090600302016040518060600160405290816000820160009054906101000a900473ffffffffffffffffffffffffffffffffffffffff1673ffffffffffffffffffffffffffffffffffffffff1673ffffffffffffffffffffffffffffffffffffffff168152602001600182015481526020016002820180546125b390613b82565b80601f01602080910402602001604051908101604052809291908181526020018280546125df90613b82565b801561262c5780601f106126015761010080835404028352916020019161262c565b820191906000526020600020905b81548152906001019060200180831161260f57829003601f168201915b50505050508152505081526020019060010190612520565b50505050905090565b6126d083838080601f016020809104026020016040519081016040528093929190818152602001838380828437600081840152601f19601f820116905080830192505050505050506040518060400160405280600381526020017f4554480000000000000000000000000000000000000000000000000000000000815250612c3b565b156127ea57600160405180606001604052803373ffffffffffffffffffffffffffffffffffffffff16815260200134815260200185858080601f016020809104026020016040519081016040528093929190818152602001838380828437600081840152601f19601f82011690508083019250505050505050815250908060018154018082558091505060019003906000526020600020906003020160009091909190915060008201518160000160006101000a81548173ffffffffffffffffffffffffffffffffffffffff021916908373ffffffffffffffffffffffffffffffffffffffff1602179055506020820151816001015560408201518160020190805190602001906127e2929190612d7b565b505050612bc9565b61286d83838080601f016020809104026020016040519081016040528093929190818152602001838380828437600081840152601f19601f820116905080830192505050505050506040518060400160405280600381526020017f4254430000000000000000000000000000000000000000000000000000000000815250612c3b565b1561295157600460003373ffffffffffffffffffffffffffffffffffffffff1673ffffffffffffffffffffffffffffffffffffffff168152602001908152602001600020600001548111156128f7576040517f08c379a00000000000000000000000000000000000000000000000000000000081526004016128ee90613869565b60405180910390fd5b80600460003373ffffffffffffffffffffffffffffffffffffffff1673ffffffffffffffffffffffffffffffffffffffff16815260200190815260200160002060000160008282546129499190613a72565b925050819055505b6129d483838080601f016020809104026020016040519081016040528093929190818152602001838380828437600081840152601f19601f820116905080830192505050505050506040518060400160405280600481526020017f4c554e4100000000000000000000000000000000000000000000000000000000815250612c3b565b15612ab857600460003373ffffffffffffffffffffffffffffffffffffffff1673ffffffffffffffffffffffffffffffffffffffff16815260200190815260200160002060010154811115612a5e576040517f08c379a0000000000000000000000000000000000000000000000000000000008152600401612a5590613869565b60405180910390fd5b80600460003373ffffffffffffffffffffffffffffffffffffffff1673ffffffffffffffffffffffffffffffffffffffff1681526020019081526020016000206001016000828254612ab09190613a72565b925050819055505b600160405180606001604052803373ffffffffffffffffffffffffffffffffffffffff16815260200183815260200185858080601f016020809104026020016040519081016040528093929190818152602001838380828437600081840152601f19601f82011690508083019250505050505050815250908060018154018082558091505060019003906000526020600020906003020160009091909190915060008201518160000160006101000a81548173ffffffffffffffffffffffffffffffffffffffff021916908373ffffffffffffffffffffffffffffffffffffffff160217905550602082015181600101556040820151816002019080519060200190612bc5929190612d7b565b5050505b505050565b612bd6612c94565b600460008373ffffffffffffffffffffffffffffffffffffffff1673ffffffffffffffffffffffffffffffffffffffff168152602001908152602001600020604051806040016040529081600082015481526020016001820154815250509050919050565b600081604051602001612c4e919061363f565b6040516020818303038152906040528051906020012083604051602001612c75919061363f565b6040516020818303038152906040528051906020012014905092915050565b604051806040016040528060008152602001600081525090565b828054612cba90613b82565b90600052602060002090601f016020900481019282612cdc5760008555612d2a565b82601f10612ced5780548555612d2a565b82800160010185558215612d2a57600052602060002091601f016020900482015b82811115612d29578254825591600101919060010190612d0e565b5b509050612d379190612e01565b5090565b508054612d4790613b82565b6000825580601f10612d595750612d78565b601f016020900490600052602060002090810190612d779190612e01565b5b50565b828054612d8790613b82565b90600052602060002090601f016020900481019282612da95760008555612df0565b82601f10612dc257805160ff1916838001178555612df0565b82800160010185558215612df0579182015b82811115612def578251825591602001919060010190612dd4565b5b509050612dfd9190612e01565b5090565b5b80821115612e1a576000816000905550600101612e02565b5090565b6000612e31612e2c84613904565b6138df565b905082815260208101848484011115612e4957600080fd5b612e54848285613b40565b509392505050565b600081359050612e6b81613dba565b92915050565b600081359050612e8081613dd1565b92915050565b60008083601f840112612e9857600080fd5b8235905067ffffffffffffffff811115612eb157600080fd5b602083019150836001820283011115612ec957600080fd5b9250929050565b600082601f830112612ee157600080fd5b8135612ef1848260208601612e1e565b91505092915050565b600081519050612f0981613de8565b92915050565b600081519050612f1e81613dff565b92915050565b60008083601f840112612f3657600080fd5b8235905067ffffffffffffffff811115612f4f57600080fd5b602083019150836001820283011115612f6757600080fd5b9250929050565b600081359050612f7d81613e16565b92915050565b600081519050612f9281613e16565b92915050565b600060208284031215612faa57600080fd5b6000612fb884828501612e5c565b91505092915050565b600080600080600060808688031215612fd957600080fd5b6000612fe788828901612e5c565b9550506020612ff888828901612f6e565b945050604061300988828901612e71565b935050606086013567ffffffffffffffff81111561302657600080fd5b61303288828901612e86565b92509250509295509295909350565b6000806000806000806080878903121561305a57600080fd5b600087013567ffffffffffffffff81111561307457600080fd5b61308089828a01612e86565b9650965050602061309389828a01612f6e565b94505060406130a489828a01612e71565b935050606087013567ffffffffffffffff8111156130c157600080fd5b6130cd89828a01612e86565b92509250509295509295509295565b6000602082840312156130ee57600080fd5b60006130fc84828501612efa565b91505092915050565b60006020828403121561311757600080fd5b600061312584828501612f0f565b91505092915050565b6000806000806000806080878903121561314757600080fd5b600087013567ffffffffffffffff81111561316157600080fd5b61316d89828a01612f24565b9650965050602061318089828a01612e5c565b945050604087013567ffffffffffffffff81111561319d57600080fd5b6131a989828a01612e86565b935093505060606131bc89828a01612f6e565b9150509295509295509295565b6000806000604084860312156131de57600080fd5b600084013567ffffffffffffffff8111156131f857600080fd5b61320486828701612f24565b9350935050602061321786828701612f6e565b9150509250925092565b60008060008060006080868803121561323957600080fd5b600086013567ffffffffffffffff81111561325357600080fd5b61325f88828901612f24565b9550955050602061327288828901612f6e565b935050604061328388828901612e71565b925050606086013567ffffffffffffffff8111156132a057600080fd5b6132ac88828901612ed0565b9150509295509295909350565b6000602082840312156132cb57600080fd5b60006132d984828501612f6e565b91505092915050565b6000602082840312156132f457600080fd5b600061330284828501612f83565b91505092915050565b600061331783836135ba565b905092915050565b61332881613aa6565b82525050565b61333781613aa6565b82525050565b600061334882613945565b6133528185613973565b93508360208202850161336485613935565b8060005b858110156133a05784840389528151613381858261330b565b945061338c83613966565b925060208a01995050600181019050613368565b50829750879550505050505092915050565b6133bb81613ab8565b82525050565b6133ca81613ac4565b82525050565b60006133dc8385613984565b93506133e9838584613b40565b6133f283613cdc565b840190509392505050565b600061340882613950565b6134128185613984565b9350613422818560208601613b4f565b61342b81613cdc565b840191505092915050565b61343f81613b1c565b82525050565b600061345183856139a6565b935061345e838584613b40565b61346783613cdc565b840190509392505050565b600061347d8261395b565b6134878185613995565b9350613497818560208601613b4f565b6134a081613cdc565b840191505092915050565b60006134b68261395b565b6134c081856139b7565b93506134d0818560208601613b4f565b80840191505092915050565b60006134e96004836139a6565b91506134f482613ced565b602082019050919050565b600061350c6014836139a6565b915061351782613d16565b602082019050919050565b600061352f600c836139a6565b915061353a82613d3f565b602082019050919050565b60006135526014836139a6565b915061355d82613d68565b602082019050919050565b60006135756003836139a6565b915061358082613d91565b602082019050919050565b6040820160008201516135a1600085018261360a565b5060208201516135b4602085018261360a565b50505050565b60006060830160008301516135d2600086018261331f565b5060208301516135e5602086018261360a565b50604083015184820360408601526135fd8282613472565b9150508091505092915050565b61361381613b12565b82525050565b61362281613b12565b82525050565b61363961363482613b12565b613be5565b82525050565b600061364b82846134ab565b915081905092915050565b60006136628285613628565b6020820191506136728284613628565b6020820191508190509392505050565b6000602082019050613697600083018461332e565b92915050565b600060208201905081810360008301526136b7818461333d565b905092915050565b60006020820190506136d460008301846133b2565b92915050565b60006080820190506136ef60008301886133c1565b6136fc6020830187613619565b61370960408301866133c1565b818103606083015261371c8184866133d0565b90509695505050505050565b600060808201905061373d60008301876133c1565b61374a6020830186613619565b61375760408301856133c1565b818103606083015261376981846133fd565b905095945050505050565b6000602082019050818103600083015261378f8184866133d0565b90509392505050565b600060408201905081810360008301526137b38185876133d0565b90506137c26020830184613619565b949350505050565b60006020820190506137df6000830184613436565b92915050565b60006020820190508181036000830152613800818486613445565b90509392505050565b60006020820190508181036000830152613822816134dc565b9050919050565b60006020820190508181036000830152613842816134ff565b9050919050565b6000602082019050818103600083015261386281613522565b9050919050565b6000602082019050818103600083015261388281613545565b9050919050565b600060208201905081810360008301526138a281613568565b9050919050565b60006040820190506138be600083018461358b565b92915050565b60006020820190506138d96000830184613619565b92915050565b60006138e96138fa565b90506138f58282613bb4565b919050565b6000604051905090565b600067ffffffffffffffff82111561391f5761391e613cad565b5b61392882613cdc565b9050602081019050919050565b6000819050602082019050919050565b600081519050919050565b600081519050919050565b600081519050919050565b6000602082019050919050565b600082825260208201905092915050565b600082825260208201905092915050565b600082825260208201905092915050565b600082825260208201905092915050565b600081905092915050565b60006139cd82613b12565b91506139d883613b12565b9250827fffffffffffffffffffffffffffffffffffffffffffffffffffffffffffffffff03821115613a0d57613a0c613c20565b5b828201905092915050565b6000613a2382613b12565b9150613a2e83613b12565b9250817fffffffffffffffffffffffffffffffffffffffffffffffffffffffffffffffff0483118215151615613a6757613a66613c20565b5b828202905092915050565b6000613a7d82613b12565b9150613a8883613b12565b925082821015613a9b57613a9a613c20565b5b828203905092915050565b6000613ab182613af2565b9050919050565b60008115159050919050565b6000819050919050565b6000613ad982613aa6565b9050919050565b6000613aeb82613aa6565b9050919050565b600073ffffffffffffffffffffffffffffffffffffffff82169050919050565b6000819050919050565b6000613b2782613b2e565b9050919050565b6000613b3982613af2565b9050919050565b82818337600083830152505050565b60005b83811015613b6d578082015181840152602081019050613b52565b83811115613b7c576000848401525b50505050565b60006002820490506001821680613b9a57607f821691505b60208210811415613bae57613bad613c7e565b5b50919050565b613bbd82613cdc565b810181811067ffffffffffffffff82111715613bdc57613bdb613cad565b5b80604052505050565b6000819050919050565b6000613bfa82613b12565b9150613c0583613b12565b925082613c1557613c14613c4f565b5b828206905092915050565b7f4e487b7100000000000000000000000000000000000000000000000000000000600052601160045260246000fd5b7f4e487b7100000000000000000000000000000000000000000000000000000000600052601260045260246000fd5b7f4e487b7100000000000000000000000000000000000000000000000000000000600052602260045260246000fd5b7f4e487b7100000000000000000000000000000000000000000000000000000000600052604160045260246000fd5b6000601f19601f8301169050919050565b7f4c554e4100000000000000000000000000000000000000000000000000000000600082015250565b7f4465706f73697420416d6f756e74204572726f72000000000000000000000000600082015250565b7f416d6f756e74204572726f720000000000000000000000000000000000000000600082015250565b7f42616c616e636520496e73756666696369656e74000000000000000000000000600082015250565b7f4254430000000000000000000000000000000000000000000000000000000000600082015250565b613dc381613aa6565b8114613dce57600080fd5b50565b613dda81613ac4565b8114613de557600080fd5b50565b613df181613ace565b8114613dfc57600080fd5b50565b613e0881613ae0565b8114613e1357600080fd5b50565b613e1f81613b12565b8114613e2a57600080fd5b5056fea2646970667358221220d7f4e7b104bae3d5631486de788a91024ef2d9046279cfa3924821d04712711d64736f6c63430008040033",
  "linkReferences": {},
  "deployedLinkReferences": {}
}