{
  "_format": "hh-sol-artifact-1",
  "contractName": "Flip",
  "sourceName": "contracts/Flip.sol",
  "abi": [
    {
      "inputs": [
        {
          "internalType": "contract IGatewayRegistry",
          "name": "_registry",
          "type": "address"
        }
      ],
      "stateMutability": "nonpayable",
      "type": "constructor"
    },
    {
      "anonymous": false,
      "inputs": [
        {
          "indexed": false,
          "internalType": "uint256",
          "name": "_amount",
          "type": "uint256"
        }
      ],
      "name": "Deposit",
      "type": "event"
    },
    {
      "anonymous": false,
      "inputs": [
        {
          "indexed": false,
          "internalType": "bool",
          "name": "result",
          "type": "bool"
        }
      ],
      "name": "Result",
      "type": "event"
    },
    {
      "anonymous": false,
      "inputs": [
        {
          "indexed": false,
          "internalType": "uint256",
          "name": "burnedAmount",
          "type": "uint256"
        }
      ],
      "name": "Withdrawal",
      "type": "event"
    },
    {
      "inputs": [
        {
          "internalType": "uint256",
          "name": "_id",
          "type": "uint256"
        }
      ],
      "name": "acceptGame",
      "outputs": [],
      "stateMutability": "payable",
      "type": "function"
    },
    {
      "inputs": [
        {
          "internalType": "string",
          "name": "_symbol",
          "type": "string"
        },
        {
          "internalType": "uint256",
          "name": "_amount",
          "type": "uint256"
        },
        {
          "internalType": "bytes32",
          "name": "_nHash",
          "type": "bytes32"
        },
        {
          "internalType": "bytes",
          "name": "_sig",
          "type": "bytes"
        }
      ],
      "name": "deposit",
      "outputs": [],
      "stateMutability": "nonpayable",
      "type": "function"
    },
    {
      "inputs": [
        {
          "internalType": "address",
          "name": "_address",
          "type": "address"
        },
        {
          "internalType": "uint256",
          "name": "_amount",
          "type": "uint256"
        },
        {
          "internalType": "bytes32",
          "name": "_nHash",
          "type": "bytes32"
        },
        {
          "internalType": "bytes",
          "name": "_sig",
          "type": "bytes"
        }
      ],
      "name": "depositBTC",
      "outputs": [],
      "stateMutability": "nonpayable",
      "type": "function"
    },
    {
      "inputs": [
        {
          "internalType": "bytes",
          "name": "_msg",
          "type": "bytes"
        },
        {
          "internalType": "uint256",
          "name": "_amount",
          "type": "uint256"
        },
        {
          "internalType": "bytes32",
          "name": "_nHash",
          "type": "bytes32"
        },
        {
          "internalType": "bytes",
          "name": "_sig",
          "type": "bytes"
        }
      ],
      "name": "depositLUNA",
      "outputs": [],
      "stateMutability": "nonpayable",
      "type": "function"
    },
    {
      "inputs": [
        {
          "internalType": "address",
          "name": "_address",
          "type": "address"
        }
      ],
      "name": "getBalance",
      "outputs": [
        {
          "components": [
            {
              "internalType": "uint256",
              "name": "btc",
              "type": "uint256"
            },
            {
              "internalType": "uint256",
              "name": "luna",
              "type": "uint256"
            }
          ],
          "internalType": "struct Flip.Balance",
          "name": "",
          "type": "tuple"
        }
      ],
      "stateMutability": "view",
      "type": "function"
    },
    {
      "inputs": [],
      "name": "getGames",
      "outputs": [
        {
          "components": [
            {
              "internalType": "address",
              "name": "initiator",
              "type": "address"
            },
            {
              "internalType": "uint256",
              "name": "amount",
              "type": "uint256"
            },
            {
              "internalType": "string",
              "name": "symbol",
              "type": "string"
            }
          ],
          "internalType": "struct Flip.Game[]",
          "name": "",
          "type": "tuple[]"
        }
      ],
      "stateMutability": "view",
      "type": "function"
    },
    {
      "inputs": [],
      "name": "getTotalBalance",
      "outputs": [
        {
          "components": [
            {
              "internalType": "uint256",
              "name": "btc",
              "type": "uint256"
            },
            {
              "internalType": "uint256",
              "name": "luna",
              "type": "uint256"
            }
          ],
          "internalType": "struct Flip.Balance",
          "name": "",
          "type": "tuple"
        }
      ],
      "stateMutability": "view",
      "type": "function"
    },
    {
      "inputs": [
        {
          "internalType": "string",
          "name": "_symbol",
          "type": "string"
        },
        {
          "internalType": "uint256",
          "name": "_amount",
          "type": "uint256"
        }
      ],
      "name": "openGame",
      "outputs": [],
      "stateMutability": "payable",
      "type": "function"
    },
    {
      "inputs": [],
      "name": "registry",
      "outputs": [
        {
          "internalType": "contract IGatewayRegistry",
          "name": "",
          "type": "address"
        }
      ],
      "stateMutability": "view",
      "type": "function"
    },
    {
      "inputs": [
        {
          "internalType": "string",
          "name": "_symbol",
          "type": "string"
        },
        {
          "internalType": "bytes",
          "name": "_to",
          "type": "bytes"
        },
        {
          "internalType": "uint256",
          "name": "_amount",
          "type": "uint256"
        }
      ],
      "name": "withdraw",
      "outputs": [],
      "stateMutability": "nonpayable",
      "type": "function"
    }
  ],
  "bytecode": "0x60806040523480156200001157600080fd5b5060405162003daf38038062003daf833981810160405281019062000037919062000095565b806000806101000a81548173ffffffffffffffffffffffffffffffffffffffff021916908373ffffffffffffffffffffffffffffffffffffffff1602179055505062000123565b6000815190506200008f8162000109565b92915050565b600060208284031215620000a857600080fd5b6000620000b8848285016200007e565b91505092915050565b6000620000ce82620000e9565b9050919050565b6000620000e282620000c1565b9050919050565b600073ffffffffffffffffffffffffffffffffffffffff82169050919050565b6200011481620000d5565b81146200012057600080fd5b50565b613c7c80620001336000396000f3fe6080604052600436106100915760003560e01c80638fead26f116100595780638fead26f1461015a578063b7b8ee7414610183578063c04c5947146101ac578063cc7c8c2b146101d7578063f8b2cb4f146101f357610091565b806312b58349146100965780632f2b3c5f146100c15780632ff48e69146100ea578063605bd5ff146101135780637b1039991461012f575b600080fd5b3480156100a257600080fd5b506100ab610230565b6040516100b891906136eb565b60405180910390f35b3480156100cd57600080fd5b506100e860048036038101906100e39190612ebe565b61025e565b005b3480156100f657600080fd5b50610111600480360381019061010c9190613063565b61047f565b005b61012d600480360381019061012891906130fb565b610828565b005b34801561013b57600080fd5b50610144611cc9565b604051610151919061360c565b60405180910390f35b34801561016657600080fd5b50610181600480360381019061017c9190612e3e565b611ced565b005b34801561018f57600080fd5b506101aa60048036038101906101a59190612f82565b611f0b565b005b3480156101b857600080fd5b506101c161238e565b6040516101ce91906134df565b60405180910390f35b6101f160048036038101906101ec919061300b565b6124df565b005b3480156101ff57600080fd5b5061021a60048036038101906102159190612e15565b612a60565b60405161022791906136eb565b60405180910390f35b610238612b26565b600260405180604001604052908160008201548152602001600182015481525050905090565b600086866040516020016102739291906135b6565b60405160208183030381529060405280519060200120905060008060009054906101000a900473ffffffffffffffffffffffffffffffffffffffff1673ffffffffffffffffffffffffffffffffffffffff166364936b1e6040518163ffffffff1660e01b81526004016102e59061364b565b60206040518083038186803b1580156102fd57600080fd5b505afa158015610311573d6000803e3d6000fd5b505050506040513d601f19601f820116820180604052508101906103359190612f59565b73ffffffffffffffffffffffffffffffffffffffff1663159ab14d83888888886040518663ffffffff1660e01b815260040161037595949392919061351c565b602060405180830381600087803b15801561038f57600080fd5b505af11580156103a3573d6000803e3d6000fd5b505050506040513d601f19601f820116820180604052508101906103c79190613124565b905080600460003373ffffffffffffffffffffffffffffffffffffffff1673ffffffffffffffffffffffffffffffffffffffff168152602001908152602001600020600101600082825461041b9190613804565b9250508190555080600260010160008282546104379190613804565b925050819055507f4d6ce1e535dbade1c23defba91e23b8f791ce5edc0cc320257a2b364e4e384268160405161046d9190613706565b60405180910390a15050505050505050565b60008585604051602001610494929190613627565b60405160208183030381529060405280519060200120905060008060009054906101000a900473ffffffffffffffffffffffffffffffffffffffff1673ffffffffffffffffffffffffffffffffffffffff166364936b1e88886040518363ffffffff1660e01b815260040161050a929190613627565b60206040518083038186803b15801561052257600080fd5b505afa158015610536573d6000803e3d6000fd5b505050506040513d601f19601f8201168201806040525081019061055a9190612f59565b73ffffffffffffffffffffffffffffffffffffffff1663159ab14d838787876040518563ffffffff1660e01b8152600401610598949392919061356a565b602060405180830381600087803b1580156105b257600080fd5b505af11580156105c6573d6000803e3d6000fd5b505050506040513d601f19601f820116820180604052508101906105ea9190613124565b905061066f87878080601f016020809104026020016040519081016040528093929190818152602001838380828437600081840152601f19601f820116905080830192505050505050506040518060400160405280600381526020017f4254430000000000000000000000000000000000000000000000000000000000815250612acd565b156106ea5780600460003373ffffffffffffffffffffffffffffffffffffffff1673ffffffffffffffffffffffffffffffffffffffff16815260200190815260200160002060000160008282546106c69190613804565b9250508190555080600260000160008282546106e29190613804565b925050819055505b61076d87878080601f016020809104026020016040519081016040528093929190818152602001838380828437600081840152601f19601f820116905080830192505050505050506040518060400160405280600481526020017f4c554e4100000000000000000000000000000000000000000000000000000000815250612acd565b156107e85780600460003373ffffffffffffffffffffffffffffffffffffffff1673ffffffffffffffffffffffffffffffffffffffff16815260200190815260200160002060010160008282546107c49190613804565b9250508190555080600260010160008282546107e09190613804565b925050819055505b7f4d6ce1e535dbade1c23defba91e23b8f791ce5edc0cc320257a2b364e4e38426816040516108179190613706565b60405180910390a150505050505050565b60008060024442604051602001610840929190613498565b6040516020818303038152906040528051906020012060001c6108639190613a1f565b149050610978600183815481106108a3577f4e487b7100000000000000000000000000000000000000000000000000000000600052603260045260246000fd5b906000526020600020906003020160020180546108bf906139b2565b80601f01602080910402602001604051908101604052809291908181526020018280546108eb906139b2565b80156109385780601f1061090d57610100808354040283529160200191610938565b820191906000526020600020905b81548152906001019060200180831161091b57829003601f168201915b50505050506040518060400160405280600381526020017f4554480000000000000000000000000000000000000000000000000000000000815250612acd565b15610bc257600182815481106109b7577f4e487b7100000000000000000000000000000000000000000000000000000000600052603260045260246000fd5b9060005260206000209060030201600101543414610a0a576040517f08c379a0000000000000000000000000000000000000000000000000000000008152600401610a019061368b565b60405180910390fd5b8015610ab3573373ffffffffffffffffffffffffffffffffffffffff166108fc600260018581548110610a66577f4e487b7100000000000000000000000000000000000000000000000000000000600052603260045260246000fd5b906000526020600020906003020160010154610a82919061385a565b9081150290604051600060405180830381858888f19350505050158015610aad573d6000803e3d6000fd5b50610bbd565b60018281548110610aed577f4e487b7100000000000000000000000000000000000000000000000000000000600052603260045260246000fd5b906000526020600020906003020160000160009054906101000a900473ffffffffffffffffffffffffffffffffffffffff1673ffffffffffffffffffffffffffffffffffffffff166108fc600260018581548110610b74577f4e487b7100000000000000000000000000000000000000000000000000000000600052603260045260246000fd5b906000526020600020906003020160010154610b90919061385a565b9081150290604051600060405180830381858888f19350505050158015610bbb573d6000803e3d6000fd5b505b611acb565b610cd460018381548110610bff577f4e487b7100000000000000000000000000000000000000000000000000000000600052603260045260246000fd5b90600052602060002090600302016002018054610c1b906139b2565b80601f0160208091040260200160405190810160405280929190818152602001828054610c47906139b2565b8015610c945780601f10610c6957610100808354040283529160200191610c94565b820191906000526020600020905b815481529060010190602001808311610c7757829003601f168201915b50505050506040518060400160405280600381526020017f4254430000000000000000000000000000000000000000000000000000000000815250612acd565b15610daa57600460003373ffffffffffffffffffffffffffffffffffffffff1673ffffffffffffffffffffffffffffffffffffffff1681526020019081526020016000206000015460018381548110610d56577f4e487b7100000000000000000000000000000000000000000000000000000000600052603260045260246000fd5b9060005260206000209060030201600101541115610da9576040517f08c379a0000000000000000000000000000000000000000000000000000000008152600401610da0906136ab565b60405180910390fd5b5b610ebc60018381548110610de7577f4e487b7100000000000000000000000000000000000000000000000000000000600052603260045260246000fd5b90600052602060002090600302016002018054610e03906139b2565b80601f0160208091040260200160405190810160405280929190818152602001828054610e2f906139b2565b8015610e7c5780601f10610e5157610100808354040283529160200191610e7c565b820191906000526020600020905b815481529060010190602001808311610e5f57829003601f168201915b50505050506040518060400160405280600481526020017f4c554e4100000000000000000000000000000000000000000000000000000000815250612acd565b15610f9257600460003373ffffffffffffffffffffffffffffffffffffffff1673ffffffffffffffffffffffffffffffffffffffff1681526020019081526020016000206001015460018381548110610f3e577f4e487b7100000000000000000000000000000000000000000000000000000000600052603260045260246000fd5b9060005260206000209060030201600101541115610f91576040517f08c379a0000000000000000000000000000000000000000000000000000000008152600401610f88906136ab565b60405180910390fd5b5b8015611533576110aa60018381548110610fd5577f4e487b7100000000000000000000000000000000000000000000000000000000600052603260045260246000fd5b90600052602060002090600302016002018054610ff1906139b2565b80601f016020809104026020016040519081016040528092919081815260200182805461101d906139b2565b801561106a5780601f1061103f5761010080835404028352916020019161106a565b820191906000526020600020905b81548152906001019060200180831161104d57829003601f168201915b50505050506040518060400160405280600381526020017f4254430000000000000000000000000000000000000000000000000000000000815250612acd565b1561126357600182815481106110e9577f4e487b7100000000000000000000000000000000000000000000000000000000600052603260045260246000fd5b906000526020600020906003020160010154600460003373ffffffffffffffffffffffffffffffffffffffff1673ffffffffffffffffffffffffffffffffffffffff168152602001908152602001600020600001600082825461114c9190613804565b925050819055506001828154811061118d577f4e487b7100000000000000000000000000000000000000000000000000000000600052603260045260246000fd5b90600052602060002090600302016001015460046000600185815481106111dd577f4e487b7100000000000000000000000000000000000000000000000000000000600052603260045260246000fd5b906000526020600020906003020160000160009054906101000a900473ffffffffffffffffffffffffffffffffffffffff1673ffffffffffffffffffffffffffffffffffffffff1673ffffffffffffffffffffffffffffffffffffffff168152602001908152602001600020600001600082825461125b91906138b4565b925050819055505b611375600183815481106112a0577f4e487b7100000000000000000000000000000000000000000000000000000000600052603260045260246000fd5b906000526020600020906003020160020180546112bc906139b2565b80601f01602080910402602001604051908101604052809291908181526020018280546112e8906139b2565b80156113355780601f1061130a57610100808354040283529160200191611335565b820191906000526020600020905b81548152906001019060200180831161131857829003601f168201915b50505050506040518060400160405280600481526020017f4c554e4100000000000000000000000000000000000000000000000000000000815250612acd565b1561152e57600182815481106113b4577f4e487b7100000000000000000000000000000000000000000000000000000000600052603260045260246000fd5b906000526020600020906003020160010154600460003373ffffffffffffffffffffffffffffffffffffffff1673ffffffffffffffffffffffffffffffffffffffff16815260200190815260200160002060010160008282546114179190613804565b9250508190555060018281548110611458577f4e487b7100000000000000000000000000000000000000000000000000000000600052603260045260246000fd5b90600052602060002090600302016001015460046000600185815481106114a8577f4e487b7100000000000000000000000000000000000000000000000000000000600052603260045260246000fd5b906000526020600020906003020160000160009054906101000a900473ffffffffffffffffffffffffffffffffffffffff1673ffffffffffffffffffffffffffffffffffffffff1673ffffffffffffffffffffffffffffffffffffffff168152602001908152602001600020600101600082825461152691906138b4565b925050819055505b611aca565b61164560018381548110611570577f4e487b7100000000000000000000000000000000000000000000000000000000600052603260045260246000fd5b9060005260206000209060030201600201805461158c906139b2565b80601f01602080910402602001604051908101604052809291908181526020018280546115b8906139b2565b80156116055780601f106115da57610100808354040283529160200191611605565b820191906000526020600020905b8154815290600101906020018083116115e857829003601f168201915b50505050506040518060400160405280600381526020017f4254430000000000000000000000000000000000000000000000000000000000815250612acd565b156117fe5760018281548110611684577f4e487b7100000000000000000000000000000000000000000000000000000000600052603260045260246000fd5b906000526020600020906003020160010154600460003373ffffffffffffffffffffffffffffffffffffffff1673ffffffffffffffffffffffffffffffffffffffff16815260200190815260200160002060000160008282546116e791906138b4565b9250508190555060018281548110611728577f4e487b7100000000000000000000000000000000000000000000000000000000600052603260045260246000fd5b9060005260206000209060030201600101546004600060018581548110611778577f4e487b7100000000000000000000000000000000000000000000000000000000600052603260045260246000fd5b906000526020600020906003020160000160009054906101000a900473ffffffffffffffffffffffffffffffffffffffff1673ffffffffffffffffffffffffffffffffffffffff1673ffffffffffffffffffffffffffffffffffffffff16815260200190815260200160002060000160008282546117f69190613804565b925050819055505b6119106001838154811061183b577f4e487b7100000000000000000000000000000000000000000000000000000000600052603260045260246000fd5b90600052602060002090600302016002018054611857906139b2565b80601f0160208091040260200160405190810160405280929190818152602001828054611883906139b2565b80156118d05780601f106118a5576101008083540402835291602001916118d0565b820191906000526020600020905b8154815290600101906020018083116118b357829003601f168201915b50505050506040518060400160405280600481526020017f4c554e4100000000000000000000000000000000000000000000000000000000815250612acd565b15611ac9576001828154811061194f577f4e487b7100000000000000000000000000000000000000000000000000000000600052603260045260246000fd5b906000526020600020906003020160010154600460003373ffffffffffffffffffffffffffffffffffffffff1673ffffffffffffffffffffffffffffffffffffffff16815260200190815260200160002060010160008282546119b291906138b4565b92505081905550600182815481106119f3577f4e487b7100000000000000000000000000000000000000000000000000000000600052603260045260246000fd5b9060005260206000209060030201600101546004600060018581548110611a43577f4e487b7100000000000000000000000000000000000000000000000000000000600052603260045260246000fd5b906000526020600020906003020160000160009054906101000a900473ffffffffffffffffffffffffffffffffffffffff1673ffffffffffffffffffffffffffffffffffffffff1673ffffffffffffffffffffffffffffffffffffffff1681526020019081526020016000206001016000828254611ac19190613804565b925050819055505b5b5b7f0b3bdb70bcb1393d4319be3261bd6ab95e2ea1665e718029d24cecca39e84ccc81604051611afa9190613501565b60405180910390a16001808080549050611b1491906138b4565b81548110611b4b577f4e487b7100000000000000000000000000000000000000000000000000000000600052603260045260246000fd5b906000526020600020906003020160018381548110611b93577f4e487b7100000000000000000000000000000000000000000000000000000000600052603260045260246000fd5b90600052602060002090600302016000820160009054906101000a900473ffffffffffffffffffffffffffffffffffffffff168160000160006101000a81548173ffffffffffffffffffffffffffffffffffffffff021916908373ffffffffffffffffffffffffffffffffffffffff160217905550600182015481600101556002820181600201908054611c26906139b2565b611c31929190612b40565b509050506001805480611c6d577f4e487b7100000000000000000000000000000000000000000000000000000000600052603160045260246000fd5b6001900381819060005260206000209060030201600080820160006101000a81549073ffffffffffffffffffffffffffffffffffffffff02191690556001820160009055600282016000611cc19190612bcd565b505090555050565b60008054906101000a900473ffffffffffffffffffffffffffffffffffffffff1681565b600085604051602001611d0091906134c4565b60405160208183030381529060405280519060200120905060008060009054906101000a900473ffffffffffffffffffffffffffffffffffffffff1673ffffffffffffffffffffffffffffffffffffffff166364936b1e6040518163ffffffff1660e01b8152600401611d72906136cb565b60206040518083038186803b158015611d8a57600080fd5b505afa158015611d9e573d6000803e3d6000fd5b505050506040513d601f19601f82011682018060405250810190611dc29190612f59565b73ffffffffffffffffffffffffffffffffffffffff1663159ab14d83888888886040518663ffffffff1660e01b8152600401611e0295949392919061351c565b602060405180830381600087803b158015611e1c57600080fd5b505af1158015611e30573d6000803e3d6000fd5b505050506040513d601f19601f82011682018060405250810190611e549190613124565b905080600460008973ffffffffffffffffffffffffffffffffffffffff1673ffffffffffffffffffffffffffffffffffffffff1681526020019081526020016000206000016000828254611ea89190613804565b925050819055508060026000016000828254611ec49190613804565b925050819055507f4d6ce1e535dbade1c23defba91e23b8f791ce5edc0cc320257a2b364e4e3842686604051611efa9190613706565b60405180910390a150505050505050565b611f8e85858080601f016020809104026020016040519081016040528093929190818152602001838380828437600081840152601f19601f820116905080830192505050505050506040518060400160405280600381526020017f4254430000000000000000000000000000000000000000000000000000000000815250612acd565b1561208e5780600460003373ffffffffffffffffffffffffffffffffffffffff1673ffffffffffffffffffffffffffffffffffffffff168152602001908152602001600020600001541015612018576040517f08c379a000000000000000000000000000000000000000000000000000000000815260040161200f9061366b565b60405180910390fd5b80600460003373ffffffffffffffffffffffffffffffffffffffff1673ffffffffffffffffffffffffffffffffffffffff168152602001908152602001600020600001600082825461206a91906138b4565b92505081905550806002600001600082825461208691906138b4565b925050819055505b61211185858080601f016020809104026020016040519081016040528093929190818152602001838380828437600081840152601f19601f820116905080830192505050505050506040518060400160405280600481526020017f4c554e4100000000000000000000000000000000000000000000000000000000815250612acd565b156122115780600460003373ffffffffffffffffffffffffffffffffffffffff1673ffffffffffffffffffffffffffffffffffffffff16815260200190815260200160002060010154101561219b576040517f08c379a00000000000000000000000000000000000000000000000000000000081526004016121929061366b565b60405180910390fd5b80600460003373ffffffffffffffffffffffffffffffffffffffff1673ffffffffffffffffffffffffffffffffffffffff16815260200190815260200160002060010160008282546121ed91906138b4565b92505081905550806002600101600082825461220991906138b4565b925050819055505b60008060009054906101000a900473ffffffffffffffffffffffffffffffffffffffff1673ffffffffffffffffffffffffffffffffffffffff166364936b1e87876040518363ffffffff1660e01b815260040161226f929190613627565b60206040518083038186803b15801561228757600080fd5b505afa15801561229b573d6000803e3d6000fd5b505050506040513d601f19601f820116820180604052508101906122bf9190612f59565b73ffffffffffffffffffffffffffffffffffffffff166338463cff8585856040518463ffffffff1660e01b81526004016122fb939291906135da565b602060405180830381600087803b15801561231557600080fd5b505af1158015612329573d6000803e3d6000fd5b505050506040513d601f19601f8201168201806040525081019061234d9190613124565b90507f4e70a604b23a8edee2b1d0a656e9b9c00b73ad8bb1afc2c59381ee9f69197de78160405161237e9190613706565b60405180910390a1505050505050565b60606001805480602002602001604051908101604052809291908181526020016000905b828210156124d657838290600052602060002090600302016040518060600160405290816000820160009054906101000a900473ffffffffffffffffffffffffffffffffffffffff1673ffffffffffffffffffffffffffffffffffffffff1673ffffffffffffffffffffffffffffffffffffffff16815260200160018201548152602001600282018054612445906139b2565b80601f0160208091040260200160405190810160405280929190818152602001828054612471906139b2565b80156124be5780601f10612493576101008083540402835291602001916124be565b820191906000526020600020905b8154815290600101906020018083116124a157829003601f168201915b505050505081525050815260200190600101906123b2565b50505050905090565b61256283838080601f016020809104026020016040519081016040528093929190818152602001838380828437600081840152601f19601f820116905080830192505050505050506040518060400160405280600381526020017f4554480000000000000000000000000000000000000000000000000000000000815250612acd565b1561267c57600160405180606001604052803373ffffffffffffffffffffffffffffffffffffffff16815260200134815260200185858080601f016020809104026020016040519081016040528093929190818152602001838380828437600081840152601f19601f82011690508083019250505050505050815250908060018154018082558091505060019003906000526020600020906003020160009091909190915060008201518160000160006101000a81548173ffffffffffffffffffffffffffffffffffffffff021916908373ffffffffffffffffffffffffffffffffffffffff160217905550602082015181600101556040820151816002019080519060200190612674929190612c0d565b505050612a5b565b6126ff83838080601f016020809104026020016040519081016040528093929190818152602001838380828437600081840152601f19601f820116905080830192505050505050506040518060400160405280600381526020017f4254430000000000000000000000000000000000000000000000000000000000815250612acd565b156127e357600460003373ffffffffffffffffffffffffffffffffffffffff1673ffffffffffffffffffffffffffffffffffffffff16815260200190815260200160002060000154811115612789576040517f08c379a0000000000000000000000000000000000000000000000000000000008152600401612780906136ab565b60405180910390fd5b80600460003373ffffffffffffffffffffffffffffffffffffffff1673ffffffffffffffffffffffffffffffffffffffff16815260200190815260200160002060000160008282546127db91906138b4565b925050819055505b61286683838080601f016020809104026020016040519081016040528093929190818152602001838380828437600081840152601f19601f820116905080830192505050505050506040518060400160405280600481526020017f4c554e4100000000000000000000000000000000000000000000000000000000815250612acd565b1561294a57600460003373ffffffffffffffffffffffffffffffffffffffff1673ffffffffffffffffffffffffffffffffffffffff168152602001908152602001600020600101548111156128f0576040517f08c379a00000000000000000000000000000000000000000000000000000000081526004016128e7906136ab565b60405180910390fd5b80600460003373ffffffffffffffffffffffffffffffffffffffff1673ffffffffffffffffffffffffffffffffffffffff168152602001908152602001600020600101600082825461294291906138b4565b925050819055505b600160405180606001604052803373ffffffffffffffffffffffffffffffffffffffff16815260200183815260200185858080601f016020809104026020016040519081016040528093929190818152602001838380828437600081840152601f19601f82011690508083019250505050505050815250908060018154018082558091505060019003906000526020600020906003020160009091909190915060008201518160000160006101000a81548173ffffffffffffffffffffffffffffffffffffffff021916908373ffffffffffffffffffffffffffffffffffffffff160217905550602082015181600101556040820151816002019080519060200190612a57929190612c0d565b5050505b505050565b612a68612b26565b600460008373ffffffffffffffffffffffffffffffffffffffff1673ffffffffffffffffffffffffffffffffffffffff168152602001908152602001600020604051806040016040529081600082015481526020016001820154815250509050919050565b600081604051602001612ae09190613481565b6040516020818303038152906040528051906020012083604051602001612b079190613481565b6040516020818303038152906040528051906020012014905092915050565b604051806040016040528060008152602001600081525090565b828054612b4c906139b2565b90600052602060002090601f016020900481019282612b6e5760008555612bbc565b82601f10612b7f5780548555612bbc565b82800160010185558215612bbc57600052602060002091601f016020900482015b82811115612bbb578254825591600101919060010190612ba0565b5b509050612bc99190612c93565b5090565b508054612bd9906139b2565b6000825580601f10612beb5750612c0a565b601f016020900490600052602060002090810190612c099190612c93565b5b50565b828054612c19906139b2565b90600052602060002090601f016020900481019282612c3b5760008555612c82565b82601f10612c5457805160ff1916838001178555612c82565b82800160010185558215612c82579182015b82811115612c81578251825591602001919060010190612c66565b5b509050612c8f9190612c93565b5090565b5b80821115612cac576000816000905550600101612c94565b5090565b6000612cc3612cbe84613746565b613721565b905082815260208101848484011115612cdb57600080fd5b612ce6848285613970565b509392505050565b600081359050612cfd81613bea565b92915050565b600081359050612d1281613c01565b92915050565b60008083601f840112612d2a57600080fd5b8235905067ffffffffffffffff811115612d4357600080fd5b602083019150836001820283011115612d5b57600080fd5b9250929050565b600082601f830112612d7357600080fd5b8135612d83848260208601612cb0565b91505092915050565b600081519050612d9b81613c18565b92915050565b60008083601f840112612db357600080fd5b8235905067ffffffffffffffff811115612dcc57600080fd5b602083019150836001820283011115612de457600080fd5b9250929050565b600081359050612dfa81613c2f565b92915050565b600081519050612e0f81613c2f565b92915050565b600060208284031215612e2757600080fd5b6000612e3584828501612cee565b91505092915050565b600080600080600060808688031215612e5657600080fd5b6000612e6488828901612cee565b9550506020612e7588828901612deb565b9450506040612e8688828901612d03565b935050606086013567ffffffffffffffff811115612ea357600080fd5b612eaf88828901612d18565b92509250509295509295909350565b60008060008060008060808789031215612ed757600080fd5b600087013567ffffffffffffffff811115612ef157600080fd5b612efd89828a01612d18565b96509650506020612f1089828a01612deb565b9450506040612f2189828a01612d03565b935050606087013567ffffffffffffffff811115612f3e57600080fd5b612f4a89828a01612d18565b92509250509295509295509295565b600060208284031215612f6b57600080fd5b6000612f7984828501612d8c565b91505092915050565b600080600080600060608688031215612f9a57600080fd5b600086013567ffffffffffffffff811115612fb457600080fd5b612fc088828901612da1565b9550955050602086013567ffffffffffffffff811115612fdf57600080fd5b612feb88828901612d18565b93509350506040612ffe88828901612deb565b9150509295509295909350565b60008060006040848603121561302057600080fd5b600084013567ffffffffffffffff81111561303a57600080fd5b61304686828701612da1565b9350935050602061305986828701612deb565b9150509250925092565b60008060008060006080868803121561307b57600080fd5b600086013567ffffffffffffffff81111561309557600080fd5b6130a188828901612da1565b955095505060206130b488828901612deb565b93505060406130c588828901612d03565b925050606086013567ffffffffffffffff8111156130e257600080fd5b6130ee88828901612d62565b9150509295509295909350565b60006020828403121561310d57600080fd5b600061311b84828501612deb565b91505092915050565b60006020828403121561313657600080fd5b600061314484828501612e00565b91505092915050565b600061315983836133fc565b905092915050565b61316a816138e8565b82525050565b613179816138e8565b82525050565b600061318a82613787565b61319481856137b5565b9350836020820285016131a685613777565b8060005b858110156131e257848403895281516131c3858261314d565b94506131ce836137a8565b925060208a019950506001810190506131aa565b50829750879550505050505092915050565b6131fd816138fa565b82525050565b61320c81613906565b82525050565b600061321e83856137c6565b935061322b838584613970565b61323483613b0c565b840190509392505050565b600061324a82613792565b61325481856137c6565b935061326481856020860161397f565b61326d81613b0c565b840191505092915050565b6132818161394c565b82525050565b600061329383856137e8565b93506132a0838584613970565b6132a983613b0c565b840190509392505050565b60006132bf8261379d565b6132c981856137d7565b93506132d981856020860161397f565b6132e281613b0c565b840191505092915050565b60006132f88261379d565b61330281856137f9565b935061331281856020860161397f565b80840191505092915050565b600061332b6004836137e8565b915061333682613b1d565b602082019050919050565b600061334e6014836137e8565b915061335982613b46565b602082019050919050565b6000613371600c836137e8565b915061337c82613b6f565b602082019050919050565b60006133946014836137e8565b915061339f82613b98565b602082019050919050565b60006133b76003836137e8565b91506133c282613bc1565b602082019050919050565b6040820160008201516133e3600085018261344c565b5060208201516133f6602085018261344c565b50505050565b60006060830160008301516134146000860182613161565b506020830151613427602086018261344c565b506040830151848203604086015261343f82826132b4565b9150508091505092915050565b61345581613942565b82525050565b61346481613942565b82525050565b61347b61347682613942565b613a15565b82525050565b600061348d82846132ed565b915081905092915050565b60006134a4828561346a565b6020820191506134b4828461346a565b6020820191508190509392505050565b60006020820190506134d96000830184613170565b92915050565b600060208201905081810360008301526134f9818461317f565b905092915050565b600060208201905061351660008301846131f4565b92915050565b60006080820190506135316000830188613203565b61353e602083018761345b565b61354b6040830186613203565b818103606083015261355e818486613212565b90509695505050505050565b600060808201905061357f6000830187613203565b61358c602083018661345b565b6135996040830185613203565b81810360608301526135ab818461323f565b905095945050505050565b600060208201905081810360008301526135d1818486613212565b90509392505050565b600060408201905081810360008301526135f5818587613212565b9050613604602083018461345b565b949350505050565b60006020820190506136216000830184613278565b92915050565b60006020820190508181036000830152613642818486613287565b90509392505050565b600060208201905081810360008301526136648161331e565b9050919050565b6000602082019050818103600083015261368481613341565b9050919050565b600060208201905081810360008301526136a481613364565b9050919050565b600060208201905081810360008301526136c481613387565b9050919050565b600060208201905081810360008301526136e4816133aa565b9050919050565b600060408201905061370060008301846133cd565b92915050565b600060208201905061371b600083018461345b565b92915050565b600061372b61373c565b905061373782826139e4565b919050565b6000604051905090565b600067ffffffffffffffff82111561376157613760613add565b5b61376a82613b0c565b9050602081019050919050565b6000819050602082019050919050565b600081519050919050565b600081519050919050565b600081519050919050565b6000602082019050919050565b600082825260208201905092915050565b600082825260208201905092915050565b600082825260208201905092915050565b600082825260208201905092915050565b600081905092915050565b600061380f82613942565b915061381a83613942565b9250827fffffffffffffffffffffffffffffffffffffffffffffffffffffffffffffffff0382111561384f5761384e613a50565b5b828201905092915050565b600061386582613942565b915061387083613942565b9250817fffffffffffffffffffffffffffffffffffffffffffffffffffffffffffffffff04831182151516156138a9576138a8613a50565b5b828202905092915050565b60006138bf82613942565b91506138ca83613942565b9250828210156138dd576138dc613a50565b5b828203905092915050565b60006138f382613922565b9050919050565b60008115159050919050565b6000819050919050565b600061391b826138e8565b9050919050565b600073ffffffffffffffffffffffffffffffffffffffff82169050919050565b6000819050919050565b60006139578261395e565b9050919050565b600061396982613922565b9050919050565b82818337600083830152505050565b60005b8381101561399d578082015181840152602081019050613982565b838111156139ac576000848401525b50505050565b600060028204905060018216806139ca57607f821691505b602082108114156139de576139dd613aae565b5b50919050565b6139ed82613b0c565b810181811067ffffffffffffffff82111715613a0c57613a0b613add565b5b80604052505050565b6000819050919050565b6000613a2a82613942565b9150613a3583613942565b925082613a4557613a44613a7f565b5b828206905092915050565b7f4e487b7100000000000000000000000000000000000000000000000000000000600052601160045260246000fd5b7f4e487b7100000000000000000000000000000000000000000000000000000000600052601260045260246000fd5b7f4e487b7100000000000000000000000000000000000000000000000000000000600052602260045260246000fd5b7f4e487b7100000000000000000000000000000000000000000000000000000000600052604160045260246000fd5b6000601f19601f8301169050919050565b7f4c554e4100000000000000000000000000000000000000000000000000000000600082015250565b7f4465706f73697420416d6f756e74204572726f72000000000000000000000000600082015250565b7f416d6f756e74204572726f720000000000000000000000000000000000000000600082015250565b7f42616c616e636520496e73756666696369656e74000000000000000000000000600082015250565b7f4254430000000000000000000000000000000000000000000000000000000000600082015250565b613bf3816138e8565b8114613bfe57600080fd5b50565b613c0a81613906565b8114613c1557600080fd5b50565b613c2181613910565b8114613c2c57600080fd5b50565b613c3881613942565b8114613c4357600080fd5b5056fea26469706673582212205b0af6858bc154c29114f99a1590283e05330717797b28591bf6335282384e3c64736f6c63430008040033",
  "linkReferences": {},
  "deployedLinkReferences": {}
}